:020000040000fa
:080000000002040000000000f2
:020000040000fa
:10000800020c0000060c00000a0c00000e0c000098
:10001800120c0000160c00001a0c00001e0c000048
:10002800220c0000260c00002a0c00002e0c0000f8
:10003800320c0000360c00003a0c00003e0c0000a8
:10004800420c0000460c00004a0c00004e0c000058
:10005800520c0000560c00005a0c00005e0c000008
:10006800620c0000660c00006a0c00006e0c0000b8
:10007800720c0000760c00007a0c00007e0c000068
:10008800820c0000860c00008a0c00008e0c000018
:10009800920c0000960c00009a0c00009e0c0000c8
:1000a800a20c0000a60c0000aa0c0000ae0c000078
:1000b800b20c0000b60c0000ba0c0000be0c000028
:1000c800c20c0000c60c0000ca0c0000ce0c0000d8
:1000d800d20c0000d60c0000da0c0000de0c000088
:1000e800e20c0000e60c0000ea0c0000ee0c000038
:1000f800f20c0000f60c0000fa0c0000fe0c0000e8
:10010800020d0000060d00000a0d00000e0d000093
:10011800120d0000160d00001a0d00001e0d000043
:10012800220d0000260d00002a0d00002e0d0000f3
:10013800320d0000360d00003a0d00003e0d0000a3
:10014800420d0000460d00004a0d00004e0d000053
:10015800520d0000560d00005a0d00005e0d000003
:10016800620d0000660d00006a0d00006e0d0000b3
:10017800720d0000760d00007a0d00007e0d000063
:10018800820d0000860d00008a0d00008e0d000013
:10019800920d0000960d00009a0d00009e0d0000c3
:1001a800a20d0000a60d0000aa0d0000ae0d000073
:1001b800b20d0000b60d0000ba0d0000be0d000023
:1001c800c20d0000c60d0000ca0d0000ce0d0000d3
:1001d800d20d0000d60d0000da0d0000de0d000083
:1001e800e20d0000e60d0000ea0d0000ee0d000033
:0801f800f20d0000f60d0000fd
:020000040000fa
:10020800020c0000060c00000a0c00000e0c000096
:10021800120c0000160c00001a0c00001e0c000046
:10022800220c0000260c00002a0c00002e0c0000f6
:10023800320c0000360c00003a0c00003e0c0000a6
:10024800420c0000460c00004a0c00004e0c000056
:10025800520c0000560c00005a0c00005e0c000006
:10026800620c0000660c00006a0c00006e0c0000b6
:10027800720c0000760c00007a0c00007e0c000066
:10028800820c0000860c00008a0c00008e0c000016
:10029800920c0000960c00009a0c00009e0c0000c6
:1002a800a20c0000a60c0000aa0c0000ae0c000076
:1002b800b20c0000b60c0000ba0c0000be0c000026
:1002c800c20c0000c60c0000ca0c0000ce0c0000d6
:1002d800d20c0000d60c0000da0c0000de0c000086
:1002e800e20c0000e60c0000ea0c0000ee0c000036
:1002f800f20c0000f60c0000fa0c0000fe0c0000e6
:10030800020d0000060d00000a0d00000e0d000091
:10031800120d0000160d00001a0d00001e0d000041
:10032800220d0000260d00002a0d00002e0d0000f1
:10033800320d0000360d00003a0d00003e0d0000a1
:10034800420d0000460d00004a0d00004e0d000051
:10035800520d0000560d00005a0d00005e0d000001
:10036800620d0000660d00006a0d00006e0d0000b1
:10037800720d0000760d00007a0d00007e0d000061
:10038800820d0000860d00008a0d00008e0d000011
:10039800920d0000960d00009a0d00009e0d0000c1
:1003a800a20d0000a60d0000aa0d0000ae0d000071
:1003b800b20d0000b60d0000ba0d0000be0d000021
:1003c800c20d0000c60d0000ca0d0000ce0d0000d1
:1003d800d20d0000d60d0000da0d0000de0d000081
:1003e800e20d0000e60d0000ea0d0000ee0d000031
:0803f800f20d0000f60d0000fb
:020000040000fa
:10040000afe620000e7f22000e01880000000000f1
:10041000000020000000e000020032000001200087
:1004200020028800140007005b0007000000e000c5
:1004300003003a0000002000010020000200370005
:100440000000200001002000810f70000100320038
:1004500014000700000020000000e000020032004d
:1004600000000200000000000c0402000000000078
:100470000040da000000fe004440a9000000200017
:100480000000e0000300320000002000a00188000e
:100490004440a800000006008a1f78008b1f7800e7
:1004a0000000060091018800800478000000eb0045
:1004b0001a003700e284440032a0b4009905ba0063
:1004c000e284440032a0b4009906ba00e2844400f9
:1004d00032a0b4000006eb00476fde00fd07b2005b
:1004e000636ce10003003a00ebff07000000eb0043
:1004f0000a003700606ce10004003a00005deb0088
:100500008b05e900fdff3e00040037006168e10053
:10051000010032000086eb000b00070019c7ba008b
:100520001905ba000e04e00003003a000a00e000da
:10053000e0ff3a0000000600fe07b2009e018800be
:100540008a047800f5ff3700395dba008b05e900b1
:100550000c003200295dba008b05e900080032006a
:100560000c00e00003003a00e284440032a0b40032
:10057000f5ff370019ddba008b05e900faff3a00f4
:100580008904e800e184440032a0b40000000600c1
:100590000040da000000fe00000005006022b80004
:1005a000060220000000d0008180d2000482d20028
:1005b0008582d2000000a0000202520083825a000d
:1005c000030031000202420083824a000000a100c1
:0c05d0000603e900f3ff3a0000000600fb
:020000040000fa
:1005dc00b701070000000600889fbe008004780069
:1005ec00081020004e010700210480000100640067
:1005fc0002003200804ceb000d0037002242ab00b1
:10060c0002003200301180000000fe002222ab00fc
:10061c00020032002222a9000000fe002202ab00e0
:10062c00f0ff320011e1a90030118000804c7800fd
:10063c004f04be0000000600889fbe008a9fbe00cb
:10064c00000578000204be000b6020008b054500fd
:10065c008800780009007800e6010700014d780059
:10066c004881de001245980020459800630545003e
:10067c0062044400e0844c008b0f5500f4ff3a00f8
:10068c004f05be004f04be0000000600889fbe0050
:10069c00804478002322ab000500320008202000a3
:1006ac001f0107001111800001006400fcff3a00db
:1006bc008904fb00291188004f04be0000000600cd
:1006cc00889fbe008a1f7800010578000a00e000b0
:1006dc0007003400800478000004eb0039407800f7
:1006ec00eaff07000804e800880f5500fbff3c00f8
:1006fc004f0578004f04be0000000600ec87470051
:10070c00889fbe008a9fbe008c9fbe008e1f780003
:10071c000204be00000578001b0020000ef02f0024
:10072c0002003700630545008b05e8001a80fb00ca
:10073c008c006700810070001a4190004811dd00a8
:10074c00f00f200080806000010671002a419000ab
:10075c000281fb008d006700010171000001610046
:10076c00820678008c0178008800780009007800f7
:10077c009c0107007f006400f80f500006003a004f
:10078c000800be00e0b79f00f1b79f000c00be0050
:10079c00c0b79f00d1b79f00e18f55001200320007
:1007ac008bbf9f000b007800f003b20007003a00eb
:1007bc00cfb197005fb19700efb097007fb0970073
:1007cc00880107001000240078010700620444002f
:1007dc00e0844c00f01f20008fb89700808f5000f1
:1007ec00d0ff34000300370062044400e0844c0066
:1007fc00ccff37004f0778004f06be004f05be00f8
:10080c004f04be00cf00b100000006000e00fa003d
:10081c00889fbe008a9fbe008c1f78006cff07006b
:10082c0040a7a90001c020000000eb0071010700e7
:10083c000004be0040c7ab0004003a004007ab0008
:10084c0003003a0040e7ab0001003a006d010700dd
:10085c0000102e00010020008d0107009e000700f3
:10086c001021ef001221ef001061a8008500a900f3
:10087c009500a900f00f2000010020000801600085
:10088c008001eb00800f5100818f59000c00320069
:10089c000804fb00cfc4de000040220000c9b900f0
:1008ac00410f200001c2b900820042000044b80090
:1008bc0089844000790888006808880011e1a80044
:1008cc00748657007880570043ff07000fe89700a5
:1008dc00e74f50006700320007003c00e24f500029
:1008ec000d003200e34f50001b0032000004e0000a
:1008fc007400320075003700e94f50003f003200a1
:10090c006e003500f14f500051003200f34f500093
:10091c006e003a0055003700768057002eff070016
:10092c00758057002cff07000c0078002aff070089
:10093c000040eb00d0ef9f005fb19700efb1970044
:10094c00408020003cff0700016020004080200018
:10095c005bff0700dbff3700728057001eff0700ac
:10096c00718057001cff0700708057001aff0700aa
:10097c000040eb0090f79f000004eb004980200042
:10098c000a6020000900440013ff07000804e80077
:10099c008a0f5400fbff3a007fb097008fb8970086
:1009ac0000017800f23fb20008003a00f2bf2000cc
:1009bc00820f5000e08f58000d00360022042400f6
:1009cc00ffb097000fb89700140107007fb0970095
:1009dc008fb89700f2bf2000820f5000e08f5800b4
:1009ec00030036000001be004080200043ff0700da
:1009fc0010c0b30025ff0700b2ff37000200200033
:100a0c00f30f20008200780003007800f900070043
:100a1c0090bf9f00a1bf9f00410020006e80570037
:100a2c0027ff070022002000f30f2000820078002f
:100a3c0003007800ef00070090bf9f00a1bf9f004c
:100a4c00410020006e8057001dff07009dff3700fe
:100a5c0030c0b3000dff07000040eb000bff070098
:100a6c0010c0b30009ff070096ff3700e80007002d
:100a7c0094ff37000004eb00498020004b0220005b
:100a8c000805780009004400d3fe07000800e800c0
:100a9c0009004000d0fe0700630444000a85e8000a
:100aac0009004500ccfe070010c0b300f7fe07009c
:100abc008b0f5400f2ff3a0082ff3700d40007007e
:100acc0080ff3700cf0007007eff37000040eb00af
:100adc00eefe07007bff37002c03a800c002a90024
:100aec00c602a9006840a90000e823000040880065
:100afc000228ef00c402a9000000060020168000a6
:100b0c00610060000000a200e1ff2f0022168000af
:100b1c0082806000810070002116880000000600b1
:100b2c00024080001340800061005100e0805900b9
:100b3c000040880011408800e00f5000e08f580002
:100b4c0004003a00edff070003e82300034088008f
:100b5c000228ef0000000600881f780002047800cd
:100b6c000401be008afe07000800e0000f003a00f6
:100b7c006f016000e70f5100050036004c09dd00e5
:100b8c004400de0000007100c408de0015003700d0
:100b9c004c09dd004400de0000007100c408de00da
:100bac0061005000e08058000e00370063016000c7
:100bbc00e10f5100050036004e09dd004200de0059
:100bcc0000007100c208de00060037004e09dd008f
:100bdc004200de0000007100c208de00610050001f
:100bec00e08058004f04780000000600000006006a
:100bfc000200fa00ff3ffc00113a8000f1bf9f0099
:100c0c00670160004811dd00f18f2f00ffb99700dc
:100c1c0081806100810071000170a1000100a000c1
:100c2c00f1bf9f00fff997008381fb00a209200010
:100c3c008107200034742000014a7800024a7800b1
:100c4c00034a7800eff897008181fb0072052000c1
:100c5c006104200024742000014a7800024a7800c4
:100c6c00034a78000000fc004207ab00feff3a008c
:100c7c00e14f500002003200e34f500004003a00f4
:100c8c0001022000133a800003816000fdff320056
:100c9c008080fb00103a80004c00de006700600092
:100cac00810f5000fbff3a000080fa0000000600a4
:100cbc000040eb00ceff0700f08f2f004427b6005a
:100ccc00f0f32f004427b60044a7a80010c0b300cf
:100cdc00c7ff070000000600889fbe000004be008e
:100cec005d0007004c48dd004444de000804700041
:100cfc00c44cde0000408000114080000000440025
:100d0c0081804c0000408800114088004f04be00d8
:100d1c0000000600c942a800cf42a9006a00a90041
:100d2c0002fe2f002335800003016100a200b300f6
:100d3c0022358800c962a900cf62a90069e0a90028
:100d4c00f20f2e0053368000030161000230b30015
:100d5c00523688002022ef000002be000001eb009a
:100d6c0000402200410f20007bff0700401188004b
:100d7c00000028000011880000402000101188009d
:100d8c0000e8230001002000d3ff07002222a90065
:100d9c0001003700301180002262ab00fdff3a00e9
:100dac002242ab00fbff3a0000000600003b88002b
:100dbc0050052000303b8800a00a2000303b880002
:100dcc0061e7a800000000000000000061e7af0030
:100ddc00feff3700000006009001880081007800bb
:100dec0000000600900188008308bb008288bb00cd
:100dfc0000000600900188001100ba009180ba0032
:100e0c0000000600000e04000000000000000600b8
:100e1c004007a800fbff0700000006003200f800a6
:100e2c00023b8800900188008108bb00500520001f
:100e3c00303b8800a00a2000303b880061e7a80006
:100e4c00000000000000000061e7af00feff37006b
:080e5c003200f900000006005d
:020000040000fa
:100e6400f03fb1000180b10006003500ee03090037
:100e740000000000403fb1000180b100fbff3d00d5
:100e84001000b000203fb0000200350000800900cf
:080e9400000000000000060050
:020000040000fa
:080e9c00a0ff070000000600a2
:020000040000fa
:020000040001f9
:0457f0003fff000077
:020000040000fa
:020000040001f9
:0457f400ffff0000b3
:020000040000fa
:020000040001f9
:0457f8006d10000030
:020000040000fa
:020000040001f9
:0457fc00793f0000f1
:00000001FF
