:020000040000fa
:080000000002040000000000f2
:020000040000fa
:1000080002100000061000000a1000000e10000088
:1000180012100000161000001a1000001e10000038
:1000280022100000261000002a1000002e100000e8
:1000380032100000361000003a1000003e10000098
:1000480042100000461000004a1000004e10000048
:1000580052100000561000005a1000005e100000f8
:1000680062100000661000006a1000006e100000a8
:1000780072100000761000007a1000007e10000058
:1000880082100000861000008a1000008e10000008
:1000980092100000961000009a1000009e100000b8
:1000a800a2100000a6100000aa100000ae10000068
:1000b800b2100000b6100000ba100000be10000018
:1000c800c2100000c6100000ca100000ce100000c8
:1000d800d2100000d6100000da100000de10000078
:1000e800e2100000e6100000ea100000ee10000028
:1000f800f2100000f6100000fa100000fe100000d8
:1001080002110000061100000a1100000e11000083
:1001180012110000161100001a1100001e11000033
:1001280022110000261100002a1100002e110000e3
:1001380032110000361100003a1100003e11000093
:1001480042110000461100004a1100004e11000043
:1001580052110000561100005a1100005e110000f3
:1001680062110000661100006a1100006e110000a3
:1001780072110000761100007a1100007e11000053
:1001880082110000861100008a1100008e11000003
:1001980092110000961100009a1100009e110000b3
:1001a800a2110000a6110000aa110000ae11000063
:1001b800b2110000b6110000ba110000be11000013
:1001c800c2110000c6110000ca110000ce110000c3
:1001d800d2110000d6110000da110000de11000073
:1001e800e2110000e6110000ea110000ee11000023
:1001f800f2110000f6110000fa110000fe110000d3
:1002080002120000061200000a1200000e1200007e
:1002180012120000161200001a1200001e1200002e
:1002280022120000261200002a1200002e120000de
:1002380032120000361200003a1200003e1200008e
:1002480042120000461200004a1200004e1200003e
:1002580052120000561200005a1200005e120000ee
:1002680062120000661200006a1200006e1200009e
:0c02780072120000761200007a120000e2
:020000040000fa
:10040000af6621000eff24000e01880000000000ee
:10041000000020000000e000020032000001200087
:100420002002880014000700740007000000e000ac
:1004300003003a0000002000010020000200370005
:100440000000200001002000810f70000100320038
:100450000f000700000020000000e0000200320052
:1004600000000200000000003a040200000000004a
:100470000040da000000fe00200020000000e00044
:1004800002003200100020009001880000000600e9
:10049000a1028800800478000000eb001f003700f4
:1004a000e284440054a0b4009905ba00e2844400f8
:1004b00054a0b4009906ba00e284440054a0b400e9
:1004c0000006eb00476fde00fd07b200ae018800ba
:1004d000636ce10003003a000ad801000000eb0061
:1004e0000e003700606ce10008003a00004deb00a0
:1004f0000a05e800020039003420ec000af0a000f0
:100500008b05e900f9ff3e00040037006168e10057
:10051000010032000086eb000b00070019c7ba008b
:100520000e04e0001905ba0003003a000a00e000da
:10053000dbff3a0000000600fe07b200ae028800b2
:100540008a047800f5ff37000cd0a300e20f4d00bd
:100550001c00390089027800354dba000a05e80010
:10056000020039003420ec000af0a0008b05e900fd
:100570000f003200254dba000a05e80002003900dc
:100580003420ec000af0a0008b05e90008003200de
:100590000c00e0000600320015cdba000a05e800a4
:1005a000020039003420ec000af0a0008b05e900bd
:1005b0008984e80054a0b4000b00e000e2ff3a0098
:1005c000000006009902ba00055d78008b05e9007d
:1005d000f7ff3200c82ade00055d78008b05e900d0
:1005e000f3ff32000c00e000f1ff320019ddba0029
:1005f000eeff37000040da000000fe0000000500ba
:100600006022b800060220000000d0008180d200e5
:100610000482d2008582d2000000a00002025200b3
:1006200083825a00030031000202420083824a00a2
:100630000000a1000603e900f3ff3a0000000600f5
:020000040000fa
:10064000f701070000000600889fbe0080047800c4
:10065000081020004e0107000140800001006400e6
:1006600002003200804ceb000d0037002242ab004c
:1006700002003200301180000000fe002222ab0098
:10068000020032002222a9000000fe002202ab007c
:10069000f0ff320011e1a90030118000804c780099
:1006a0004f04be0000000600889fbe008a9fbe0067
:1006b000000578000204be000b6020008b05450099
:1006c00088007800090078008c010700014d78004f
:1006d0004881de00124598002045980063054500da
:1006e00062044400e0844c008b0f5500f4ff3a0094
:1006f0004f05be004f04be0000000600889fbe00ec
:10070000804478002322ab0005003200082020003e
:100710001f0107001111800001006400fcff3a0076
:100720008904fb00291188004f04be000000060068
:10073000889fbe008a1f7800010578000a00e0004b
:1007400007003400800478000004eb003940780092
:10075000eaff07000804e800880f5500fbff3c0093
:100760004f0578004f04be0000000600ea874700ee
:10077000889fbe008a9fbe008c9fbe008e1f78009f
:10078000000578000007eb000bf02f00f2b79f0088
:1007900083bf9f005fb49700efb497001a80fb00ff
:1007a00088806500810070001a4190004811dd00ca
:1007b000f00f200080806000010471002a41900049
:1007c0000281fb0089806500010171000001610068
:1007d00082047800ba4090008180fb008c81650023
:1007e00083807000ca419000c819dd0080806000dd
:1007f000018671005a4290000482fb008d806500e2
:100800000102720000026200840678006607470059
:100810008c02780088017800ffb097000fb897002d
:100820002e01070012002400ffb097000fb89700b8
:10083000150107007fb097008fb897006400400053
:10084000e0804800f0b79f0081bf9f00660545002b
:1008500001602000810f5700d0ff3a004f07780059
:100860004f06be004f05be004f04be00af00b100f2
:10087000000006000e00fa00889fbe008a9fbe009e
:100880008c1f78006eff070040a7a900010021001f
:100890000000eb00190107000004be0040c7ab00d8
:1008a00004003a004007ab0003003a0040e7ab0009
:1008b00001003a0015010700004028003100200027
:1008c000ab0107009e0007001021ef001221ef008e
:1008d0001061a8000108a9002108a900f00f20005c
:1008e00001002000080160008001eb00800f510032
:1008f000818f59000c0032000804fb00cfc4de00d9
:1009000021722b0081c8b9001239200082c1b900c0
:10091000020040000144b8008904400079088800c2
:100920006808880011e1a800748657007880570095
:1009300045ff07000fe89700e74f500067003200bf
:1009400007003c00e24f50000d003200e34f500022
:100950001b0032000004e000740032007500370014
:10096000e94f50003f0032006e003500f14f50005b
:1009700051003200f34f50006e003a00550037002e
:100980007680570030ff0700758057002eff070064
:100990000c0078002cff07000040eb00d0ef9f0018
:1009a0005fb19700efb19700400021003eff0700c4
:1009b00001602000400021005dff0700dbff3700e1
:1009c0007280570020ff0700718057001eff07004c
:1009d000708057001cff07000040eb0090f79f005d
:1009e0000004eb00490021000a60200009004400d7
:1009f00015ff07000804e8008a0f5400fbff3a00c7
:100a00007fb097008fb89700f27f2000000161004f
:100a100008003a00f2bf2000820f5000e08f58001b
:100a20000d00360032002400ffb097000fb8970089
:100a3000bc0007007fb097008fb89700f2bf20007e
:100a4000820f5000e08f5800030036000001be0006
:100a50004000210045ff070010c0b30027ff07003a
:100a6000b2ff370002002000f30f20008200780060
:100a700003007800a100070090bf9f00a1bf9f0066
:100a8000410020006e80570029ff0700220020004f
:100a9000f30f200082007800030078009700070021
:100aa00090bf9f00a1bf9f00410020006e805700b3
:100ab0001fff07009dff370030c0b3000fff070086
:100ac0000040eb000dff070010c0b3000bff070054
:100ad00096ff37009000070094ff37000004eb00fa
:100ae000490021004b02200008057800090044005d
:100af000d5fe07000800e80009004000d2fe07000c
:100b0000630444000a85e80009004500cefe0700a2
:100b100010c0b300f9fe07008b0f5400f2ff3a003b
:100b200082ff37007c00070080ff37007700070056
:100b30007eff37000040eb00f0fe07007bff370030
:100b400011eea90017eea9001beea9001deea900e9
:100b500017eea800909e2e00008088000230ef0063
:100b600015eea90000000600a07080000080ea00d9
:100b70004f00de004f00dd00f1ff2700a270800073
:100b80008280600081007000a17088000000060073
:100b9000028080001380800061005100e0805900d5
:100ba0000080880011808800e00f5000e08f58001e
:100bb00004003a00ecff0700939e2e00038088009b
:100bc0000230ef0000000600881f78000204780061
:100bd0000401be008afe07000800e0000f003a0092
:100be0006f016000e70f5100050036004c09dd0081
:100bf0004400de0000007100c408de00150037006c
:100c00004c09dd004400de0000007100c408de0075
:100c100061005000e08058000e0037006301600062
:100c2000e10f5100050036004e09dd004200de00f4
:100c300000007100c208de00060037004e09dd002a
:100c40004200de0000007100c208de0061005000ba
:100c5000e08058004f04780000000600403988000a
:100c60005005200070398800a00a200070398800e3
:100c700029e7a800000000000000000029e7af00fd
:100c8000feff3700000006006039880051398800f7
:100c9000423988000600fc005005200070398800a9
:100ca000a00a20007039880029e7a8000000000091
:100cb0000000000029e7af00feff3700000006003b
:100cc000a00288008100780000000600a0028800d1
:100cd0008308bb008288bb0000000600a00f200034
:100ce000a0028800010020008308bb008298bb009e
:100cf0008508bb008498bb0000000600a0028800a5
:100d00001100ba009180ba00000006000013040030
:100d100000000000000006004007a800fbff0700dd
:100d20000000060042398800603988005139880087
:100d30000600fc005005200070398800a00a200041
:100d40007039880029e7a8000000000000000000ba
:100d500029e7af00feff3700000006000000060094
:100d60000200fa00ff3ffc00113a8000f1bf9f0033
:100d7000670160004811dd00f18f2f00ffb9970077
:100d800081806100810071000170a1000100a0005c
:100d9000f1bf9f00fff997008381fb00a2092000ab
:100da0008107200034742000014a7800024a78004c
:100db000034a7800eff897008181fb00720520005c
:100dc0006104200024742000014a7800024a78005f
:100dd000034a78000000fc004207ab00feff3a0027
:100de000e14f500002003200e34f500004003a008f
:100df00001022000133a800003816000fdff3200f1
:100e00008080fb00103a80004c00de00670060002c
:100e1000810f5000fbff3a000080fa00000006003e
:100e20000040eb00ceff070000fc2f004827b60073
:100e300000fe2f004427b60000e02f004607b60052
:100e4000f003b300303a8800f0f32f004427b600d7
:100e500010c0b300c2ff070000000600889fbe005c
:100e60000004be00340007004c48dd004444de00ae
:100e700008047000c44cde000080800011808000f7
:100e80000000440081804c000080880011808800b0
:100e90004f04be0000000600114ea800174ea90026
:100ea0001b4ea9001d4ea90002f82f00233680001a
:100eb00003016100a202b30022368800116ea9006e
:100ec000176ea9001b6ea9001d6ea900f20f2c0061
:100ed00043348000030161000280a0004234880096
:100ee0002022ef000002be000001eb0020722b0068
:100ef0001139200034ff070040118800000028004d
:100f0000001188000040210010118800909e2e00e2
:100f100001002000d1ff07002222a90001003700b4
:100f2000301180002262ab00fdff3a002242ab008c
:080f3000fbff3a00000006007f
:020000040000fa
:100f3800f03fb1000180b10006003500ee03090062
:100f480000000000403fb1000180b100fbff3d0000
:100f58001000b000203fb0000200350000800900fa
:080f680000000000000006007b
:020000040000fa
:080f7000c9ff070000000600a4
:020000040000fa
:020000040002f8
:04afe000cfff00009f
:020000040000fa
:020000040002f8
:04afe400efff00007b
:020000040000fa
:020000040002f8
:04afe80079ff0000ed
:020000040000fa
:020000040002f8
:04afec005dff000005
:020000040000fa
:020000040002f8
:04aff00078ff0000e6
:020000040000fa
:020000040002f8
:04aff400ffff00005b
:00000001FF
