:020000040000fa
:080000000002040000000000f2
:020000040000fa
:04000800d80200001a
:020000040000fa
:04000c00d802000016
:020000040000fa
:04001000d802000012
:020000040000fa
:04001400d80200000e
:020000040000fa
:04001800d80200000a
:020000040000fa
:04001c00d802000006
:020000040000fa
:04002000d802000002
:020000040000fa
:04002400d8020000fe
:020000040000fa
:04002800d8020000fa
:020000040000fa
:04002c00d8020000f6
:020000040000fa
:04003000d8020000f2
:020000040000fa
:04003400d8020000ee
:020000040000fa
:04003800d8020000ea
:020000040000fa
:04003c00d8020000e6
:020000040000fa
:04004000d8020000e2
:020000040000fa
:04004400d8020000de
:020000040000fa
:04004800d8020000da
:020000040000fa
:04004c00d8020000d6
:020000040000fa
:04005000d8020000d2
:020000040000fa
:04005400d8020000ce
:020000040000fa
:04005800d8020000ca
:020000040000fa
:04005c00d8020000c6
:020000040000fa
:04006000d8020000c2
:020000040000fa
:04006400d8020000be
:020000040000fa
:04006800d8020000ba
:020000040000fa
:04006c00d8020000b6
:020000040000fa
:04007000d8020000b2
:020000040000fa
:04007400d8020000ae
:020000040000fa
:04007800d8020000aa
:020000040000fa
:04007c00d8020000a6
:020000040000fa
:04008000d8020000a2
:020000040000fa
:04008400d80200009e
:020000040000fa
:04008800d80200009a
:020000040000fa
:04008c00d802000096
:020000040000fa
:04009000d802000092
:020000040000fa
:04009400d80200008e
:020000040000fa
:04009800d80200008a
:020000040000fa
:04009c00d802000086
:020000040000fa
:0400a000d802000082
:020000040000fa
:0400a400d80200007e
:020000040000fa
:0400a800d80200007a
:020000040000fa
:0400ac00d802000076
:020000040000fa
:0400b000d802000072
:020000040000fa
:0400b400d80200006e
:020000040000fa
:0400b800d80200006a
:020000040000fa
:0400bc00d802000066
:020000040000fa
:0400c000d802000062
:020000040000fa
:0400c400d80200005e
:020000040000fa
:0400c800d80200005a
:020000040000fa
:0400cc00d802000056
:020000040000fa
:0400d000d802000052
:020000040000fa
:0400d400d80200004e
:020000040000fa
:0400d800d80200004a
:020000040000fa
:0400dc00d802000046
:020000040000fa
:0400e000d802000042
:020000040000fa
:0400e400d80200003e
:020000040000fa
:0400e800d80200003a
:020000040000fa
:0400ec00d802000036
:020000040000fa
:0400f000d802000032
:020000040000fa
:0400f400d80200002e
:020000040000fa
:0400f800d80200002a
:020000040000fa
:0400fc00d802000026
:020000040000fa
:04010000d802000021
:020000040000fa
:04010400d80200001d
:020000040000fa
:04010800d802000019
:020000040000fa
:04010c00d802000015
:020000040000fa
:04011000d802000011
:020000040000fa
:04011400d80200000d
:020000040000fa
:04011800d802000009
:020000040000fa
:04011c00d802000005
:020000040000fa
:04012000d802000001
:020000040000fa
:04012400d8020000fd
:020000040000fa
:04012800d8020000f9
:020000040000fa
:04012c00d8020000f5
:020000040000fa
:04013000d8020000f1
:020000040000fa
:04013400d8020000ed
:020000040000fa
:04013800d8020000e9
:020000040000fa
:04013c00d8020000e5
:020000040000fa
:04014000d8020000e1
:020000040000fa
:04014400d8020000dd
:020000040000fa
:04014800d8020000d9
:020000040000fa
:04014c00d8020000d5
:020000040000fa
:04015000d8020000d1
:020000040000fa
:04015400d8020000cd
:020000040000fa
:04015800d8020000c9
:020000040000fa
:04015c00d8020000c5
:020000040000fa
:04016000d8020000c1
:020000040000fa
:04016400d8020000bd
:020000040000fa
:04020800d802000018
:020000040000fa
:04020c00d802000014
:020000040000fa
:04021000d802000010
:020000040000fa
:04021400d80200000c
:020000040000fa
:04021800d802000008
:020000040000fa
:04021c00d802000004
:020000040000fa
:04022000d802000000
:020000040000fa
:04022400d8020000fc
:020000040000fa
:04022800d8020000f8
:020000040000fa
:04022c00d8020000f4
:020000040000fa
:04023000d8020000f0
:020000040000fa
:04023400d8020000ec
:020000040000fa
:04023800d8020000e8
:020000040000fa
:04023c00d8020000e4
:020000040000fa
:04024000d8020000e0
:020000040000fa
:04024400d8020000dc
:020000040000fa
:04024800d8020000d8
:020000040000fa
:04024c00d8020000d4
:020000040000fa
:04025000d8020000d0
:020000040000fa
:04025400d8020000cc
:020000040000fa
:04025800d8020000c8
:020000040000fa
:04025c00d8020000c4
:020000040000fa
:04026000d8020000c0
:020000040000fa
:04026400d8020000bc
:020000040000fa
:04026800d8020000b8
:020000040000fa
:04026c00d8020000b4
:020000040000fa
:04027000d8020000b0
:020000040000fa
:04027400d8020000ac
:020000040000fa
:04027800d8020000a8
:020000040000fa
:04027c00d8020000a4
:020000040000fa
:04028000d8020000a0
:020000040000fa
:04028400d80200009c
:020000040000fa
:04028800d802000098
:020000040000fa
:04028c00d802000094
:020000040000fa
:04029000d802000090
:020000040000fa
:04029400d80200008c
:020000040000fa
:04029800d802000088
:020000040000fa
:04029c00d802000084
:020000040000fa
:0402a000d802000080
:020000040000fa
:0402a400d80200007c
:020000040000fa
:0402a800d802000078
:020000040000fa
:0402ac00d802000074
:020000040000fa
:0402b000d802000070
:020000040000fa
:0402b400d80200006c
:020000040000fa
:0402b800d802000068
:020000040000fa
:0402bc00d802000064
:020000040000fa
:0402c000d802000060
:020000040000fa
:0402c400d80200005c
:020000040000fa
:0402c800d802000058
:020000040000fa
:0402cc00d802000054
:020000040000fa
:0402d000d802000050
:020000040000fa
:0402d400d80200004c
:020000040000fa
:0402d800d802000048
:020000040000fa
:0402dc00d802000044
:020000040000fa
:0402e000d802000040
:020000040000fa
:0402e400d80200003c
:020000040000fa
:0402e800d802000038
:020000040000fa
:0402ec00d802000034
:020000040000fa
:0402f000d802000030
:020000040000fa
:0402f400d80200002c
:020000040000fa
:0402f800d802000028
:020000040000fa
:0402fc00d802000024
:020000040000fa
:04030000d80200001f
:020000040000fa
:04030400d80200001b
:020000040000fa
:04030800d802000017
:020000040000fa
:04030c00d802000013
:020000040000fa
:04031000d80200000f
:020000040000fa
:04031400d80200000b
:020000040000fa
:04031800d802000007
:020000040000fa
:04031c00d802000003
:020000040000fa
:04032000d8020000ff
:020000040000fa
:04032400d8020000fb
:020000040000fa
:04032800d8020000f7
:020000040000fa
:04032c00d8020000f3
:020000040000fa
:04033000d8020000ef
:020000040000fa
:04033400d8020000eb
:020000040000fa
:04033800d8020000e7
:020000040000fa
:04033c00d8020000e3
:020000040000fa
:04034000d8020000df
:020000040000fa
:04034400d8020000db
:020000040000fa
:04034800d8020000d7
:020000040000fa
:04034c00d8020000d3
:020000040000fa
:04035000d8020000cf
:020000040000fa
:04035400d8020000cb
:020000040000fa
:04035800d8020000c7
:020000040000fa
:04035c00d8020000c3
:020000040000fa
:04036000d8020000bf
:020000040000fa
:04036400d8020000bb
:020000040000fa
:10040000ef9520000e7f22000e0188000000000002
:10041000000020000000e000020032000001200087
:100420002002880014000700a90107000000e00076
:1004300003003a00c0b7230001002000020037008b
:100440000000200001002000810f70000100320038
:1004500014000700000020000000e000020032004d
:100460000000020000000000ea3a02000000000064
:100470000040da000000fe004440a90040112100c5
:100480000000e0000300320000002000a00188000e
:100490004440a800000006008a1f78008b1f7800e7
:1004a0000000060091018800800478000000eb0045
:1004b0001a003700e284440032a0b4009905ba0063
:1004c000e284440032a0b4009906ba00e2844400f9
:1004d00032a0b4000006eb00476fde00fd07b2005b
:1004e000636ce10003003a00ebff07000000eb0043
:1004f0000a003700606ce10004003a00005deb0088
:100500008b05e900fdff3e00040037006168e10053
:10051000010032000086eb000b00070019c7ba008b
:100520001905ba000e04e00003003a000a00e000da
:10053000e0ff3a0000000600fe07b2009e018800be
:100540008a047800f5ff3700395dba008b05e900b1
:100550000c003200295dba008b05e900080032006a
:100560000c00e00003003a00e284440032a0b40032
:10057000f5ff370019ddba008b05e900faff3a00f4
:100580008904e800e184440032a0b40000000600c1
:1005900006370400000000002c37040000000000b3
:1005a000ea370400000000001038040000000000da
:1005b0003600f800809fbe00829fbe00849fbe0070
:1005c000869fbe003400f80000002000a0018800d3
:1005d0000000fa00c08120000107800001087800b7
:1005e000c0902800d91007000080fa003400f900fc
:1005f0004f03be004f02be004f01be004f00be00c1
:100600003600f900004006000c00fa0030079800a0
:1006100041079800520798003e0090006400400097
:10062000104078000000fb00e1062000810f500020
:1006300011003200e1062000810f500007003c004d
:1006400011032000810f50002300320021032000fd
:10065000810f5000300032003f003700210720009a
:10066000810f50001400320051072000810f50000c
:1006700009003200380037004a1c07000000e00083
:10068000020032000080eb00540037000000eb0055
:10069000000f780032003700421c07000000e00025
:1006a000020032000080eb004c00370010002000f8
:1006b000000f78002a0037003a1c07000000e00015
:1006c000020032000080eb004400370020002000d0
:1006d000000f780022003700e04a8000e10f500050
:1006e00002003a000080eb003c003700011180005e
:1006f00000002800008060000000e00003003a00d5
:100700000040280031002000df19070030002000e1
:10071000000f780012003700e04a8000e20f50001e
:1007200002003a000080eb002c00370081118000ad
:1007300000002800008060000000e00003003a0094
:100740000040280031002000411a0700400020002e
:10075000000f7800020037000080eb001f00370018
:100760004e00900063006000100798004e0090005b
:1007700000f0a000200798001e0090000000e0009c
:10078000030032001e009000e20f500006003a0005
:100790001e007800c300dd00209220000080400091
:1007a000ae009000010878001e009000e10f50009c
:1007b000030032001e009000e20f500006003a00d5
:1007c0001e007800c300dd00409220000080400041
:1007d000ae009000010878001e0078000080fa004a
:1007e000000006000800fa00881f78001007980033
:1007f00021079800320798001e0090000000e000da
:10080000030035001e009000e40f50000200340089
:100810000080eb00490037001e0090000000e0005f
:1008200007003a00104980000000e0000400350095
:100830000001eb0001002400e09f290072ff070087
:100840001e0090004300dd00e4004000e091200025
:1008500000804000100078000000e00002003a0034
:100860000080eb00350037000000eb00000f78003f
:100870002d0037002e0090001e0440001e00900046
:100880004300dd008080e800e0912000008040000f
:100890001000780000000100004c78001e0090005d
:1008a0004300dd00e4004000e091200000804000b3
:1008b0009000780000002400008060000000e0004c
:1008c000070032002e0090001e004000104078000b
:1008d000ea4f500002003a001e0fe80016003700f1
:1008e0001e0090004300dd00e4004000e091200085
:1008f000008040009000780000002400008060002c
:100900000000e000070032002e0090001e004000b2
:1009100010407800ed4f500002003a001e0fe80032
:10092000050037001e0fe8003e0090009e00780092
:10093000808f5000cfff39001e0078004f047800f0
:100940000080fa00000006000800fa001007980076
:1009500021079800320798001e0090000000e00078
:10096000030035001e009000e40f50000200340028
:100970000080eb00470037001e009000e10f5000a0
:1009800007003a00604980000000e00004003500e4
:100990000001eb001100240040a029001aff07000d
:1009a0001e009000e20f500007003a00a0498000ae
:1009b0000000e000040035000001eb0011002400fd
:1009c000b0a0290010ff07001e0090004300dd00ca
:1009d000e6004000e0912000008040001000780018
:1009e0000000e00002003a000080eb002900370020
:1009f0000000eb00000f7800210037001e0090007f
:100a00004300dd00e6004000e0912000008040004f
:100a10009000780000002400008060000000e000ea
:100a20000d0032002e0090001e00400010407800a3
:100a3000ea4f500008003a001e009000c300dd009d
:100a4000e09120000080400090007800a0c0b3003a
:100a500001000100090037001e009000c300dd0006
:100a6000e091200000804000900078002e0090006f
:100a70001e00400010407800010001001e0fe80039
:100a80003e0090009e007800808f5000dbff390010
:100a90001e0078000080fa00000006000200fa0044
:100aa000000f78000000eb000080fa000000060054
:100ab0000800fa00000f780012079800230798003a
:100ac000310798006000b8000080fa0000000600be
:100ad0000000050003f0a200889fbe008a9fbe00b0
:100ae0008c1f780009010700100133006450e100f9
:100af0004f0032006420e1005200320003826c009b
:100b000007003b000905d0000306d000820f540007
:100b10000c065d00020039000200320089017800f5
:100b2000030678008582550004003d000003fd00a7
:100b30008103fd008502ea008b854200840f72006c
:100b400002003b0060001000e08018006011b80057
:100b50000005eb007a28e1000a0039000600780061
:100b6000c75ddd00f707b200878075002d003700f4
:100b7000828171000a017800610560008180d100e6
:100b80000080d3008502e900f9ff3b000604400025
:100b90008784480002003b0060041400e0841c00cd
:100ba0000988a300070032008a81710082817100e8
:100bb000610164008904d1000884d3008b05e8003a
:100bc000170037000978a30013003a000b00e0007b
:100bd000130034008b05e9000804440089844c00ac
:100be0000a4474000978a3000d003a000b00e000ed
:100bf000070034008b05e9000804440089844c0098
:100c000001003a000b0020000978a300f7ff320032
:100c10000001eb0002003700828171000a017800b8
:100c20007f0007000cf0a70001f0a000c80037000b
:100c30006420e10002003a00838f6c00c80033009a
:100c40000801be000200be00c1003700889fbe0040
:100c50008a9fbe008c1f7800ac000700b3003300f1
:100c600003866c006450e1002e0032006420e10035
:100c7000330032006150e1002f0032006120e100ba
:100c80003100320085855500eb07b00009002000d7
:100c900008042000050037000804440089844c0043
:100ca0000a0031000603430087834b000001530014
:100cb00081815b00f8ff33000203be000800a00042
:100cc0000804440089844c00f6ff3900c639dd0071
:100cd0008301730001003200130020008904d10059
:100ce0000884d3000998a300050032000800a7007b
:100cf0000300a0008904d1000884d3008b05e8001c
:100d00008904d1000884d3000001eb000281d200e5
:100d10004300070001f0a1000cf0a70001f0a000c3
:100d20008b0037006420e1008d0032000801be0016
:100d30000200be00f7ff37006120e10088003200aa
:100d40006000b800f3ff37000000200001f8270022
:100d5000f0ff3700839f68000100e00002003d00c3
:100d600060001000e08018000300e00002003d0079
:100d700060011100e0811900b00007004f00e000a1
:100d800002003b0060001000e08018000000060038
:100d900014002000b9003700f4ff2f00b70037001f
:100da0000001be00440007000470a70003f0a1008a
:100db00003f8a30013003a006509b10010003200e7
:100dc000090035006928e100020035000100280013
:100dd0000000050000004000818048008502e90015
:100de000fcff3a0000000600f88f420005003500c5
:100df0008100d1000080d3008502e800fcff3a00aa
:100e0000000006008000eb00000005004f89de00b6
:100e100082017800b40037006011b800c2003700ca
:100e200081002000618055000b003d000b00200078
:100e300061fe2f000100e1001d003400828171007d
:100e4000610164008904d1000884d3000000e80037
:100e5000faff3a0071002000610064000300700096
:100e6000020060000900320061044400e0844c008c
:100e70000988a500050032008b05e8006808e1003c
:100e800002003a008904d1000884d300f20f200048
:100e90000258e10005003d00c75ddd00f907b20022
:100ea0008980750008007800000006000bf8270014
:100eb0008b00780000000500c70ade00f107b200d1
:100ec000f50fb20008003200e1cf4200020032000c
:100ed0000170a00024000500810f700001003200a5
:100ee0000408050044000500810f700002003a006c
:100ef000140005008502e9000000400081c04800a0
:100f0000fcff3b000170a000240005000004be00af
:100f1000e9ff07000003be000405be000200be009a
:100f2000e5ff0700844f7500000006000200be00c8
:100f30006450e100050036006420e1000200360044
:100f40000968a30001003a000800be000160a0008b
:100f50004f0678004f05be004f04be00000006009b
:100f6000f0ff2f00f1ff2700f9ff3700889fbe0038
:100f70008a9fbe008c1f7800e4ff0700ebff330060
:100f800003866c006450e100240032006420e1001c
:100f9000270032006150e100220032006120e100b0
:100fa000210032008b854200eb07b1000134b8000c
:100fb000003ab8000804420089844a00013ab800a7
:100fc0000030b8008880400009014a000400330066
:100fd0000000400081804800020149008b05e900c3
:100fe000c909dd00830170000100320013002000f8
:100ff000c814de004814dd004709de001200b2000c
:10100000c808de000884700085ff070001f0a10019
:101010000cf0a70001f0a000cdff37006120e10037
:10102000cfff32000801be000200be00f7ff37000c
:101030006150e100fcff3a00c9ff37006022b800b0
:10104000060220000000d0008180d2000482d2007d
:101050008582d2000000a0000202520083825a0062
:10106000030031000202420083824a000000a10016
:101070000603e900f3ff3a0000000600889fbe0067
:101080008a9fbe00841f7800a0ff07004f007800f1
:1010900011003300f0ff2f00838f6c0006003b002f
:1010a000040565000a00a7000800370009f0a60043
:1010b0001000200008003700820f5400838f5c006e
:1010c000030039001000200001003e000000200055
:1010d00009f0a7000000ea004f05be004f04be0063
:1010e0000000e00000000600881f7800030478007c
:1010f0000300e00007003d0060001000e0801800e1
:1011000060011900e081190002003b0001f02d0090
:10111000030037000400070008f0a70001f0a0005a
:101120004f04780000000600889fbe008a9fbe0022
:1011300000827000040271000482710026003200f7
:101140000004be000200be006011b8006b09200060
:10115000950220000182cf000a0039000541b1004c
:101160000082cf00070039000541b1000982cf009d
:10117000040039000541b1000882cf0001003900a8
:101180000541b10005425200120032000a003b0046
:1011900082817100610164008100d1000080d30070
:1011a0008984d3000884d3008b05e8000442e8005a
:1011b000f7ff3a00070037000804440089844c0018
:1011c00000004800818048008b05e9000442e900e6
:1011d000f9ff3a0012ff07004f05be004f04be00a2
:1011e0000000060080017800020037008159780075
:1011f0000201e9000200e000fcff3a0000000600e6
:1012000080007800010178003104e000fdff3a0021
:0812100000005100000006007f
:020000040000fa
:10121800556e0000686100006e6400006c65000097
:1012280064200000696e000074650000727200009e
:1012380075700000742c000020000000756e00001e
:101248006b6e00006f7700006e00000050490000d0
:1012580043320000344800004a31000032380000b0
:1012680047500000353000003200000041310000d6
:10127800004100003200000041330000004400003b
:10128800657600006963000065200000494400009d
:10129800203d000020000000202800000029000058
:1012a8002c20000072650000766900007369000058
:1012b8006f6e000020000000290a0000000a0000ec
:1012c8000a2a00002a2a00002a2a00002a2a0000e6
:1012d8002a2a00002a2a00002a2a00002a2a0000b6
:1012e8002a2a00002a2a00002a2a00002a2a0000a6
:1012f8002a2a00002a2a00002a2a00002a2a000096
:101308002a2a00002a2a00002a2a00002a2a000085
:101318002a2a00002a2a00002a2a00002a2a000075
:101328002a2a00002a2a00002a2a00002a0a000085
:101338002a20000057410000524e0000494e00008c
:10134800472000002d200000746800006973000029
:1013580020700000726f000067720000616d00006d
:101368002077000061730000206300006f6d0000ab
:10137800706900006c65000064200000666f000062
:101388007220000074680000652000007772000079
:101398006f6e000067200000202a00000a2a000063
:1013a8002063000068690000702e000020540000cf
:1013b8006869000073200000707200006f67000009
:1013c800726100006d2000006d610000792000004e
:1013d800707200006f6400007563000065200000f3
:1013e800756e000065780000706500006374000089
:1013f80065640000206200006568000076690000ee
:101408006f720000212000002a0a00002a20000034
:1014180045640000697400002074000068650000dd
:10142800206800006561000064650000722000000b
:10143800666900006c65000073200000746f00008e
:1014480020700000726f000070650000726c000070
:101458007920000064650000666900006e65000080
:1014680020740000686900007320000063680000b1
:1014780069700000202a00000a2a0000206100008c
:101488006e640000207400006f200000696e000088
:101498007375000072650000206300006f72000021
:1014a8007265000063740000206f00007065000022
:1014b80072610000746900006f6e00002e20000049
:1014c8002020000020200000202000002020000014
:1014d8002020000020200000202000002020000004
:1014e800202000002a0a00002a20000020200000f6
:1014f80020200000202000002020000020200000e4
:1015080020200000202000002020000020200000d3
:1015180020200000202000002020000020200000c3
:1015280020200000202000002020000020200000b3
:1015380020200000202000002020000020200000a3
:101548002020000020200000202000002020000093
:10155800202a00000a2a0000204e00004f540000f4
:10156800453a000020490000662000007468000029
:101578006973000020770000617300002063000099
:101588006f6d0000706900006c6500006420000049
:10159800666f00007220000074680000652000007b
:1015a800636f000072720000656300007420000021
:1015b80063680000697000002c20000020200000f3
:1015c8002a0a00002a200000616e00006420000042
:1015d8006f6e00006c790000206f000063630000ec
:1015e8007572000073200000617400002070000014
:1015f8006f770000657200002d6f00006e200000fc
:10160800286e00006f7400002064000075720000ee
:10161800696e000067200000612000004d43000053
:101628004c5200002020000020200000202a00004a
:101638000a2a00002072000065730000657400002b
:10164800292c000020760000657200006966000001
:1016580079200000746800006174000020410000d7
:101668005644000044200000616e00006420000021
:1016780041560000535300002061000072650000cd
:10168800206300006f6e00006e6500006374000048
:10169800656400002e200000202000002a0a0000b7
:1016a8002a2000004f6e00002074000068650000ca
:1016b8002050000049430000323400004833000045
:1016c8003247000050320000303200002c20000069
:1016d8006e6f000074200000636f00006e6e0000e3
:1016e80065630000746900006e6700002041000017
:1016f8005644000044200000202000002020000064
:101708002020000020200000202a00000a2a0000d3
:1017180020700000726f00006475000063650000af
:10172800732000007468000069730000206d0000d9
:10173800657300007361000067650000206f00009a
:101748006e6c0000792000006174000020700000b9
:101758006f770000657200002d750000702e000084
:101768002020000020200000202000002020000071
:1017780020200000202000002a0a00002a2a000059
:101788002a2a00002a2a00002a2a00002a2a000001
:101798002a2a00002a2a00002a2a00002a2a0000f1
:1017a8002a2a00002a2a00002a2a00002a2a0000e1
:1017b8002a2a00002a2a00002a2a00002a2a0000d1
:1017c8002a2a00002a2a00002a2a00002a2a0000c1
:1017d8002a2a00002a2a00002a2a00002a2a0000b1
:1017e8002a2a00002a2a00000a0000004661000098
:1017f8007374000020520000432000004f73000063
:10180800630a0000004600006173000074200000b5
:1018180052430000204f000073630000207700004f
:101828006974000068200000504c00004c0a000059
:1018380000500000726900006d61000072790000bc
:10184800204f000073630000202800005854000057
:101858002c200000485300002c20000045430000c5
:10186800290a000000500000726900006d61000044
:1018780072790000204f00007363000020280000e8
:10188800585400002c200000485300002c20000071
:1018980045430000292000007769000074680000b3
:1018a800205000004c4c00000a0000005365000066
:1018b800636f00006e640000617200007920000010
:1018c8004f730000630a0000004c00006f770000af
:1018d800205000006f770000657200002052000061
:1018e800432000004f730000630a00000046000018
:1018f800617300007420000052430000204f000074
:10190800736300002f310000360a00000046000013
:10191800617300007420000052430000204f000053
:10192800736300002f4e00000a000000556e00008f
:101938006b6e00006f7700006e2000006f73000070
:10194800636900006c6c0000617400006f72000035
:101958002074000079700000652e0000000a000065
:101968004465000076690000636500002068000097
:101978006173000020620000656500006e200000b1
:10198800696e0000207300006c650000657000003f
:10199800206d00006f640000650a0000000a000066
:1019a8004465000076690000636500002068000057
:1019b8006173000020620000656500006e20000071
:1019c800696e000020690000646c0000652000005a
:1019d8006d6f0000646500000a0000000a520000f4
:1019e80065730000657400002063000061750000e5
:1019f800736500003a200000005000006f77000077
:101a0800657200002d6f00006e2e00000a000000b5
:101a1800536f000066740000776100007265000073
:101a28002052000065730000657400002e0a000053
:101a3800005700006174000063680000646f0000d4
:101a480067200000546900006d6500006f75000094
:101a5800743a0000200000000a0000004d43000016
:101a68004c52000020610000737300006572000092
:101a7800746900006f6e00002e0a0000004200002a
:101a8800726f0000776e00002d6f00007574000003
:101a98002e0a00000054000072610000702000004f
:101aa800436f00006e6600006c69000063740000fc
:101ab8002e0a0000004900006c6c000065670000f9
:101ac800616c0000204300006f6e00006469000034
:101ad800746900006f6e00002e0a000000430000c9
:101ae8006f6e000066690000677500007261000093
:101af800746900006f6e0000204d000069730000db
:101b08006d61000074630000682e00000a00000088
:101b1800556e00006b6e00006f7700006e200000ad
:101b28007265000073650000742e00000a00000052
:101b380045720000726f000072200000747200008d
:101b48006170000070650000643a00002000000029
:101b580050720000696f000072690000747900001b
:101b68003a200000002c00002056000065630000a9
:101b7800746f0000722000006e7500006d62000036
:101b8800657200003a200000000a00000a00000008
:101b980045720000726f000072200000696e00003c
:101ba800202e00002e2f0000706900006332000014
:101bb800345f0000636f0000646500005f6500002b
:101bc800786100006d7000006c650000732f0000e4
:101bd8006c690000622f000073720000632f000020
:101be8007069000063320000345f00007574000003
:101bf800696c00002e630000206c0000696e000014
:101c08006520000034370000383a00002041000009
:101c1800535300004552000054280000753100005d
:101c2800365f00006272000067680000203c000018
:101c38003d20000031290000206600006169000095
:101c48006c650000642e00000a0000004572000068
:101c5800726f000072200000696e0000202e0000e4
:101c68002e2f00007069000063320000345f00000e
:101c7800636f0000646500005f6500007861000024
:101c88006d7000006c650000732f00006c69000027
:101c9800622f000073720000632f0000706900005b
:101ca80063320000345f000075740000696c000046
:101cb8002e630000206c0000696e000065200000a3
:101cc80034380000343a000020410000535300002b
:101cd8004552000054280000665f00006272000050
:101ce800672000003c200000363500003533000036
:101cf800352e0000352900002066000061690000cb
:101d08006c650000642e00000a00000045720000a7
:101d1800726f000072200000696e0000202e000023
:101d28002e2f00007069000063320000345f00004d
:101d3800636f0000646500005f6500007861000063
:101d48006d7000006c650000732f00006c69000066
:101d5800622f000073720000632f000064610000ae
:101d6800746100005866000065720000496d00004b
:101d7800706c00002e630000206c0000696e00008b
:101d880065200000393000003a200000415300006f
:101d9800534500005254000028460000414c000002
:101da800534500002920000066610000696c0000ae
:101db800656400002e0a00000045000072720000f1
:101dc8006f720000206900006e2000002e2e0000b7
:101dd8002f70000069630000323400005f63000068
:101de8006f640000655f000065780000616d0000a9
:101df800706c0000657300002f6c000069620000c1
:101e08002f730000726300002f64000061740000eb
:101e18006158000066650000724900006d7000009e
:101e28006c2e0000632000006c6900006e650000e5
:101e380020340000323800003a20000041530000ee
:101e4800534500005254000028460000414c000051
:101e5800534500002920000066610000696c0000fd
:101e6800656400002e0a0000004500007272000040
:101e78006f720000206900006e2000002e2e000006
:101e88002f70000069630000323400005f630000b7
:101e98006f640000655f000065780000616d0000f8
:101ea800706c0000657300002f6c00006962000010
:101eb8002f730000726300002f640000617400003b
:101ec8006158000066650000724900006d700000ee
:101ed8006c2e0000632000006c6900006e65000035
:101ee80020340000343900003a200000415300003b
:101ef800534500005254000028460000414c0000a1
:101f0800534500002920000066610000696c00004c
:101f1800656400002e0a000000450000727200008f
:101f28006f720000206900006e2000002e2e000055
:101f38002f70000069630000323400005f63000006
:101f48006f640000655f000065780000616d000047
:101f5800706c0000657300002f6c0000696200005f
:101f68002f730000726300002f640000617400008a
:101f78006158000066650000724900006d7000003d
:101f88006c2e0000632000006c6900006e65000084
:101f980020340000353900003a2000004153000089
:101fa8005345000052540000286300005f6f000092
:101fb800757400004368000061720000203d000055
:101fc8003d200000434d0000445f0000544f0000d6
:101fd8004b4500004e2900002066000061690000a2
:101fe8006c650000642e00000a00000045720000c5
:101ff800726f000072200000696e0000202e000041
:102008002e2f00007069000063320000345f00006a
:10201800636f0000646500005f6500007861000080
:102028006d7000006c650000732f00006c69000083
:10203800622f000073720000632f000064610000cb
:10204800746100005866000065720000496d000068
:10205800706c00002e630000206c0000696e0000a8
:102068006520000034380000383a000020410000a4
:102078005353000045520000542800004641000018
:102088004c530000452900002066000061690000eb
:102098006c650000642e00000a0000004572000014
:1020a800726f000072200000696e0000202e000090
:1020b8002e2f00007069000063320000345f0000ba
:1020c800636f0000646500005f65000078610000d0
:1020d8006d7000006c650000732f00006c690000d3
:1020e800622f000073720000632f0000646100001b
:1020f800746100005866000065720000496d0000b8
:10210800706c00002e630000206c0000696e0000f7
:102118006520000035310000353a000020410000fc
:102128005353000045520000542800004641000067
:102138004c5300004529000020660000616900003a
:102148006c650000642e00000a0000004572000063
:10215800726f000072200000696e0000202e0000df
:102168002e2f00007069000063320000345f000009
:10217800636f0000646500005f650000786100001f
:102188006d7000006c650000732f00006c69000022
:10219800622f000073720000632f0000646100006a
:1021a800746100005866000065720000496d000007
:1021b800706c00002e630000206c0000696e000047
:1021c8006520000035380000393a00002041000041
:1021d80053530000455200005428000046410000b7
:1021e8004c5300004529000020660000616900008a
:1021f8006c650000642e00000a0000006e6f00008d
:1022080020650000727200006f720000007200000a
:1022180065700000656100007465000064200000be
:10222800636f00006d6d0000616e000064000000c7
:10223800746900006d6500006f750000740000008f
:10224800696e00007465000072720000757000000d
:102258007465000064200000636f00006d6d00006d
:10226800616e000064000000756e0000737000006d
:10227800656300006966000069650000642000006d
:10228800696e00006465000078000000696e000057
:102298006465000078200000746f00006f20000063
:1022a800686900006768000000760000617200003d
:1022b80069610000626c000065200000736900001d
:1022c8007a650000206d0000697300006d610000f0
:1022d800746300006800000072650000616400001b
:1022e800206f00006e6c000079200000766100000d
:1022f80072690000616200006c65000000690000fe
:102308006c6c000065670000616c000020760000be
:102318006172000069610000626c000065200000c5
:10232800737000006563000069660000696300005f
:1023380061740000696f00006e00000045720000c3
:10234800726f000072200000696e0000202e0000ed
:102358002e2f00007069000063320000345f000017
:10236800636f0000646500005f650000786100002d
:102378006d7000006c650000732f00006c69000030
:10238800622f000073720000632f00006461000078
:10239800746100005866000065720000496d000015
:1023a800706c00002e630000206c0000696e000055
:1023b8006520000036310000333a0000204100005b
:1023c80053530000455200005428000028720000b2
:1023d80065630000656900007665000045720000cd
:1023e800726f0000722000003e20000030290000bb
:1023f80020260000262000002872000065630000e7
:10240800656900007665000045720000726f000083
:10241800722000003c2000004e5500004d5f000077
:1024280045520000524f0000525f0000434f000029
:10243800444500005329000029200000666100007f
:10244800696c0000656400002e0a000000000000ae
:1024580045720000726f000072200000696e000073
:10246800202e00002e2f000070690000633200004b
:10247800345f0000636f0000646500005f65000062
:10248800786100006d7000006c650000732f00001b
:102498006c690000622f000073720000632f000057
:1024a80064610000746100005866000065720000f5
:1024b8002e630000206c0000696e0000652000009b
:1024c800343200003a200000415300005345000018
:1024d80052540000287500005f7600006172000009
:1024e800496e000064650000782000003c20000070
:1024f800363200002920000066610000696c000087
:10250800656400002e0a0000004500007272000099
:102518006f720000206900006e2000002e2e00005f
:102528002f70000069630000323400005f63000010
:102538006f640000655f000065780000616d000051
:10254800706c0000657300002f6c00006962000069
:102558002f730000726300002f6400006174000094
:102568006158000066650000722e000063200000bc
:102578006c6900006e65000020340000343a0000e9
:102588002041000053530000455200005428000029
:10259800707600005f640000617400006120000034
:1025a800213d000020300000292000006661000065
:1025b800696c0000656400002e0a000000450000f8
:1025c800727200006f720000206900006e20000027
:1025d8002e2e00002f7000006963000032340000c6
:1025e8005f6300006f640000655f000065780000ad
:1025f800616d0000706c0000657300002f6c0000b6
:10260800696200002f730000726300002f640000ed
:10261800617400006158000066650000722e0000b9
:10262800632000006c6900006e6500002034000023
:10263800363a000020410000535300004552000084
:1026480054280000287500005f730000697a0000b4
:10265800652000003e2000003029000020260000f0
:1026680026200000287500005f730000697a0000ca
:10267800652000003c3d00002028000028320000b2
:1026880035350000292000002b20000031290000ea
:102698002929000020660000616900006c650000bf
:1026a800642e00000a00000045720000726f0000ee
:1026b80072200000696e0000202e00002e2f0000fe
:1026c8007069000063320000345f0000636f00002f
:1026d800646500005f650000786100006d700000af
:1026e8006c650000732f00006c690000622f000009
:1026f80073720000632f00006461000074610000c1
:1027080058660000657200002e630000206c00000f
:10271800696e000065200000393300003a2000008f
:102728004153000053450000525400002875000032
:102738005f76000061720000496e00006465000069
:10274800782000003c2000003632000029200000dc
:1027580066610000696c0000656400002e0a0000d4
:1027680000450000727200006f72000020690000ce
:102778006e2000002e2e00002f70000069630000fc
:10278800323400005f6300006f640000655f000082
:1027980065780000616d0000706c000065730000d2
:1027a8002f6c0000696200002f7300007263000044
:1027b8002f64000061740000615800006665000025
:1027c800722e0000632000006c6900006e65000036
:1027d80020310000303000003a2000004153000052
:1027e800534500005254000028700000586600004d
:1027f8006572000056610000722d00003e700000f6
:10280800753800005f6400006174000061200000fa
:10281800213d0000203000002920000066610000f2
:10282800696c0000656400002e0a00000044000086
:10283800617400006120000072650000636500009b
:10284800697600006520000065720000726f000064
:10285800723a000020000000554100005254000068
:102868003120000070610000726900007479000076
:1028780020650000727200006f7200000a000000fc
:1028880055410000525400003120000066720000db
:10289800616d0000696e000067200000657200002d
:1028a800726f0000720a00000055000041520000db
:1028b80054310000206f000076650000727200003d
:1028c800756e000020650000727200006f720000d3
:1028d8000a00000045720000726f000072200000bc
:1028e800696e0000202e00002e2f00007069000085
:1028f80063320000345f0000636f0000646500000d
:102908005f650000786100006d7000006c65000074
:10291800732f00006c690000622f000073720000c2
:10292800632f00007069000063320000345f00000c
:1029380075610000727400002e630000206c0000b6
:10294800696e00006520000033360000313a00004f
:102958002041000053530000455200005428000055
:1029680075330000325f000062610000756400008a
:102978005261000074650000203e00003d20000008
:1029880031300000303000004c2900002066000083
:10299800616900006c650000642e00000a000000f8
:1029a80055410000525400003220000070610000c0
:1029b80072690000747900002065000072720000de
:1029c8006f7200000a0000005541000052540000d8
:1029d8003220000066720000616d0000696e000020
:1029e8006720000065720000726f0000720a000024
:1029f800005500004152000054320000206f0000d2
:102a08007665000072720000756e00002065000097
:102a1800727200006f7200000a0000004572000028
:102a2800726f000072200000696e0000202e000006
:102a38002e2f00007069000063320000345f000030
:102a4800636f0000646500005f6500007861000046
:102a58006d7000006c650000732f00006c69000049
:102a6800622f000073720000632f0000706900007d
:102a780063320000345f000075610000727400006a
:102a88002e630000206c0000696e000065200000c5
:102a980037350000313a0000204100005353000050
:102aa800455200005428000075330000325f0000d2
:102ab80062610000756400005261000074650000e6
:102ac800203e00003d200000313000003030000082
:102ad8004c29000020660000616900006c65000058
:102ae800642e00000a00000045720000726f0000aa
:102af80072200000696e0000202e00002e2f0000ba
:102b08007069000063320000345f0000636f0000ea
:102b1800646500005f650000786100006d7000006a
:102b28006c650000732f00006c690000622f0000c4
:102b380073720000632f00007069000063320000a8
:102b4800345f00007365000072690000616c00006a
:102b58002e630000206c0000696e000065200000f4
:102b6800383100003a200000496e0000766100000c
:102b78006c690000642000005541000052540000b8
:102b8800003000007800000045720000726f0000fd
:102b980072200000696e0000202e00002e2f000019
:102ba8007069000063320000345f0000636f00004a
:102bb800646500005f650000786100006d700000ca
:102bc8006c650000732f00006c690000622f000024
:102bd80073720000632f0000706900006332000008
:102be800345f00007365000072690000616c0000ca
:102bf8002e630000206c0000696e00006520000054
:102c080032390000363a0000204900006e76000094
:102c1800616c00006964000020550000415200000a
:102c28005400000045720000726f0000722000001e
:102c3800696e0000202e00002e2f00007069000031
:102c480063320000345f0000636f000064650000b9
:102c58005f650000786100006d7000006c65000021
:102c6800732f00006c690000622f0000737200006f
:102c7800632f00007069000063320000345f0000b9
:102c88007365000072690000616c00002e6300002b
:102c9800206c0000696e00006520000033330000de
:102ca800353a0000204900006e760000616c000093
:102cb80069640000205500004152000054000000e3
:102cc80050c3000030750000204e0000102700009f
:102cd80088130000b80b0000d0070000e8030000cc
:102ce800f40100002c010000c8000000640000008e
:102cf800320000001e000000140000000a0000005e
:102d080005000000030000000200000001000000b0
:102d18000503000002010000321e0000140a000032
:102d28000503000002010000050300000201000085
:102d3800050300000201000045720000726f0000e8
:102d480072200000696e0000202e00002e2f000067
:102d58007069000063320000345f0000636f000098
:102d6800646500005f650000786100006d70000018
:102d78006c650000732f00006c690000622f000072
:102d880073720000632f0000706900006332000056
:102d9800345f0000746900006d650000722e000049
:102da800632000006c6900006e650000203500009b
:102db800383a0000204100005353000045520000fb
:102dc80054280000665f000074690000636b00000f
:102dd800732000003c200000363500003533000029
:102de800352e0000352900002066000061690000ca
:102df8006c650000642e00000a00000045720000a7
:102e0800726f000072200000696e0000202e000022
:102e18002e2f00007069000063320000345f00004c
:102e2800636f0000646500005f6500007861000062
:102e38006d7000006c650000732f00006c69000065
:102e4800622f000073720000632f00007069000099
:102e580063320000345f0000746900006d65000093
:102e6800722e0000632000006c6900006e6500008f
:102e780020370000363a000020410000535300007c
:102e88004552000054280000665f00007469000085
:102e9800636b0000732000003c2000003635000002
:102ea80035330000352e000035290000206600006b
:102eb800616900006c650000642e00000a000000d3
:102ec80045720000726f000072200000696e0000f9
:102ed800202e00002e2f00007069000063320000d1
:102ee800345f0000636f0000646500005f650000e8
:102ef800786100006d7000006c650000732f0000a1
:102f08006c690000622f000073720000632f0000dc
:102f18007069000063320000345f000074690000cb
:102f28006d650000722e0000632000006c690000cf
:102f38006e65000020310000363000003a200000a5
:102f4800415300005345000052540000287500000a
:102f5800385f0000544300004b500000532000002d
:102f68003c3d00002033000029200000666100007d
:102f7800696c0000656400002e0a00000000000073
:102f88000a0a0000596f00007572000020630000f3
:102f98006c6f0000636b000020630000686f000026
:102fa800696300006520000066610000696c00002c
:102fb80065640000207400006f200000696e000046
:102fc80069740000696100006c6900007a6500009e
:102fd8002e20000053650000652000002e2e000002
:102fe8002f70000069630000323400005f63000046
:102ff8006f640000655f000065780000616d000087
:10300800706c0000657300002f6c0000696200009e
:103018002f730000726300002f70000069630000c6
:10302800323400005f6300006c6f0000636b0000c7
:1030380066720000657100002e630000206c0000bd
:10304800696e000065200000323000003320000067
:10305800666f0000722000006d6f0000726500004e
:103068002064000065740000616900006c73000052
:103078002e0000002e2e00002e2000002d2d000016
:103088002d2000002e2e00002e00000045720000aa
:10309800726f000072200000696e0000202e000090
:1030a8002e2f00007069000063320000345f0000ba
:1030b800636f0000646500005f65000078610000d0
:1030c8006d7000006c650000732f00006c690000d3
:1030d800622f000073720000632f00007069000007
:1030e80063320000345f0000636c00006f6300000f
:1030f8006b66000072650000712e000063200000fe
:103108006c6900006e65000020320000323000005b
:103118003a2000004153000053450000525400007b
:1031280028750000385f0000736f0000757200009a
:1031380063650000203c00002038000029200000c2
:1031480066610000696c0000656400002e0a0000da
:103158000000000045720000726f0000722000003d
:10316800696e0000202e00002e2f000070690000fc
:1031780063320000345f0000636f00006465000084
:103188005f650000786100006d7000006c650000ec
:10319800732f00006c690000622f0000737200003a
:1031a800632f00007069000063320000345f000084
:1031b800666c000061730000682e00006320000048
:1031c8006c6900006e65000020320000303200009b
:1031d8003a200000415300005345000052540000bb
:1031e80028750000313600005f6c0000656e000035
:1031f800203c00003d200000464c000041530000e8
:10320800485f000050410000474500004259000057
:103218005445000053290000206600006169000041
:103228006c650000642e00000a0000004572000072
:10323800726f000072200000696e0000202e0000ee
:103248002e2f00007069000063320000345f000018
:10325800636f0000646500005f650000786100002e
:103268006d7000006c650000732f00006c69000031
:10327800622f000073720000632f00007069000065
:1032880063320000345f0000666c00006173000068
:10329800682e0000632000006c6900006e65000065
:1032a80020320000353100003a2000004153000070
:1032b80053450000525400002875000031360000c4
:1032c8005f6c0000656e0000203c00003d2000009f
:1032d800464c000041530000485f00005041000088
:1032e800474500004259000054450000532900009a
:1032f80020660000616900006c650000642e000013
:103308000a00000049320000433100002053000049
:10331800746100007274000000490000324300002c
:1033280031200000525300007461000072740000e4
:1033380000490000324300003120000053740000af
:103348006f70000000490000324300003120000087
:10335800507500007400000049320000435000001e
:1033680055540000312c0000204e0000414b000055
:103378002072000065740000757200006e65000020
:10338800642e000000490000324300003120000094
:1033980047650000740000005350000049310000e8
:1033a8002052000065630000656900007665000032
:1033b800204f000076650000726600006c6f000008
:1033c800770a000000530000504900003220000036
:1033d8005265000063650000697600006520000002
:1033e8004f76000065720000666c00006f77000081
:1033f8000a00000073740000646900006e00000099
:1034080073740000646f000075740000007300009e
:10341800746400006572000072000000636f0000b1
:103428006e7600006572000074410000444300009d
:0834380031280000290000000a
:020000040000fa
:103440000600fa00000f7800110798004247980024
:103450001e007800900078000100a10001087800ab
:103460001e007800900078000110a100010878008b
:103470009e009000f07f2000008160001e00780018
:10348000f17f200081006100c208dd00900178001a
:1034900032002e00028161008280700001087800f5
:1034a0001e0078001001900001002f0081006100d3
:1034b000110098001e00780020019000f13f2000cc
:1034c00081006100210098001e007800a00090009b
:1034d0000190a100210098001e007800a00090003b
:1034e0000180a100210098001e007800a00090003b
:1034f0000140a100210098004e409000ef40600084
:103500001e0078008180fb00ef806000a001900029
:1035100002ff2f000281610082807000210098006c
:103520000080fa00000006000800fa00000f780092
:103530001207980023079800614798001e00780042
:10354000900078000100a000010878001e007800bb
:10355000900078000110a100010878001e00900082
:10356000ae0090004208de0080007800f07f20006e
:1035700080806000f07f200000806000f17f2000ec
:10358000010060009e007800f27f200002006000d1
:103590004200dd009101780032002e0002816100be
:1035a00002007000800878001e009000ae009000bd
:1035b0004a09dd004600de0000007100c608de009a
:1035c00080007800f0ff200080806000f0ff200085
:1035d00000806000f1ff2000010060009e00780084
:1035e000f2ff2000020060009101900002002f0015
:1035f0000281610002007000900098001e0090009f
:1036000000407800f043b200f043b200f043b20053
:103610009e0078000080fb004a00dd00a1019000c0
:10362000f23f20000281610002007000a0009800bb
:103630001e007800a00090000190a10021009800d9
:103640001e007800a00090000180a10021009800d9
:103650001e007800a00090000140a1002100980009
:103660006e409000ef4060001e0078008180fb00fb
:10367000ef806000a001900002ff2f000281610036
:1036800082807000210098000080fa00000006008f
:103690000a00fa00400798004e00900010007800e1
:1036a0004200de00f17f2000010060008000eb009e
:1036b000008fbe001e00be00c200dd000000200022
:1036c00020079800310798004e009000900090006d
:1036d000f0ff2000008060008000eb00008fbe0043
:1036e0001e00be004609dd00ca01de008301710034
:1036f0004601dd002e009000be0090000001710028
:10370000818171004e009000200090004a00de0090
:10371000004078000080fb008000eb00000071009a
:103720008180710020079800310798002e009000da
:10373000be0090000080fa00000006000000fa00c1
:10374000c05f240090208800000c200080208800aa
:103750000080fa00000006000200fa00004f780026
:103760009e4078007fcf60001e407800ef4f5000f1
:103770000b0036009e40780070cf50001e80fb008a
:10378000110020000008dd000080ea0080007800c1
:1037900010218000008060001021880008003700a0
:1037a0001e80fb00110020000008dd000080ea0000
:1037b00080007800002180000080600000218800e7
:1037c0000080fa00000006000200fa00004f7800b6
:1037d0009e4078007fcf60001e407800ef4f500081
:1037e0000a0036009e40780070cf50001e80fb001b
:1037f000110020000008dd008040780010218000ca
:103800000040780000c06000070037001e80fb0009
:10381000110020000008dd008040780000218000b9
:103820000040780000c060000080fa000000060040
:103830000000fa002024ef002224ef002824ef00eb
:103840002a24ef000080fa00000006000400fa00bd
:10385000004f780011479800224798009e4078005a
:1038600067cf60001e80fb00e30f5000490032006c
:10387000e30f500007003c00e10f50001f00320032
:10388000e10f500030003c000000e0000800320072
:103890008c003700e50f500064003200e50f500047
:1038a0004f003500e60f50007300320085003700ee
:1038b0001e409000614060000080fb0061006000dd
:1038c0004700dd00812180000170a100010070002f
:1038d000802188002e409000634060000080fb0043
:1038e0006300600082218000c1ff2f008100610021
:1038f0000100700080218800850037001e40900084
:10390000614060000080fb004f00dd0081218000ed
:1039100001f0a10001007000802188002e4090007d
:10392000634060000080fb00630060004800dd0031
:1039300082218000f1cf2f00810061000100700022
:1039400080218800720037001e40900061406000b6
:103950000080fb00610060004700dd0091218000d5
:103960000170a10001007000902188002e4090009d
:10397000634060000080fb006300600092218000d3
:10398000c1ff2f00810061000100700090218800bc
:103990005f0037001e409000614060000080fb0027
:1039a0004f00dd009121800001f0a10001007000b6
:1039b000902188002e409000634060000080fb0052
:1039c000630060004800dd0092218000f1cf2f00ed
:1039d0008100610001007000902188004c003700d8
:1039e0001e409000614060000080fb0061006000ac
:1039f0004700dd00a12180000170a10001007000de
:103a0000a02188002e409000634060000080fb00f1
:103a100063006000a2218000c1ff2f0081006100cf
:103a200001007000a0218800390037001e4090007e
:103a3000614060000080fb004f00dd00a12180009c
:103a400001f0a10001007000a02188002e4090002c
:103a5000634060000080fb00630060004800dd0000
:103a6000a2218000f1cf2f008100610001007000d1
:103a7000a0218800260037001e40900061406000b1
:103a80000080fb00610060004700dd00b121800084
:103a90000170a10001007000b02188002e4090004c
:103aa000634060000080fb0063006000b221800082
:103ab000c1ff2f008100610001007000b02188006b
:103ac000130037001e409000614060000080fb0042
:103ad0004f00dd00b121800001f0a1000100700065
:103ae000b02188002e409000634060000080fb0001
:103af000630060004800dd00b2218000f1cf2f009c
:103b00008100610001007000b02188000000000009
:103b10000080fa00000006000200fa00004f780062
:103b20009e40780067cf60001e80fb00e30f5000ce
:103b300016003200e30f500007003c00e10f500078
:103b40000e003200e10f50000e003c000000e000cb
:103b50000800320015003700e50f50000f0032005a
:103b6000e50f50000b003500e60f50000d0032004d
:103b70000e0037003064a8000e0037003164a80042
:103b80000c0037003264a8000a0037003364a80034
:103b9000080037003464a800060037003564a80028
:103ba000040037003664a800020037003764a8001c
:103bb000000000000080fa00000006000200fa0089
:103bc000004f78009e40780067cf60001e80fb00a9
:103bd000e30f50001c003200e30f500007003c00d0
:103be000e10f500010003200e10f500012003c00c5
:103bf0000000e0000800320023003700e50f50000d
:103c000019003200e50f500013003500e60f500098
:103c1000190032001c003700802180004300de00c4
:103c2000614060001b003700802180004b00de00f7
:103c30006140600017003700902180004300de00e3
:103c40006140600013003700902180004b00de00cf
:103c5000614060000f003700a02180004300de00bb
:103c6000614060000b003700a02180004b00de00a7
:103c70006140600007003700b02180004300de0093
:103c80006140600003003700b02180004b00de007f
:103c9000614060000080fa00000006001c00fa008d
:103ca00020579800220f9800330f9800015f98006a
:103cb000145f9800255f98002e5090006f406000c0
:103cc000205798001e5890006f406000105f9800c9
:103cd0002e58900067406000205f98002e509000a2
:103ce0000080fb00000040000000400080007800e1
:103cf00000442000008f40001e80e800100798005c
:103d00002e5090000080fb004300de000040780051
:103d10000080fb000000400080007800804120000f
:103d200000804000200798002e5090000080fb008b
:103d30004200de00004078000080fb0000004000f0
:103d4000800078000042200000804000300798008a
:103d50000004a8000e5890000004e0001b00320090
:103d60002e089000be0890004208de008000780017
:103d7000f07f200000806000400798002e0890002f
:103d8000be0890004008de0000007800630060007c
:103d900050079800ae089000610798004e00900010
:103da000c500dd005e00900001007000800078001a
:103db0000130a0001e007800010878001e0090006d
:103dc000ee009000010878000b003700ae0890006c
:103dd000f07f200000806000400798004e009000b7
:103de000c500dd001e007800010878001e0090006c
:103df0008000eb00010878002e509000e340600046
:103e0000200020000008dd00604f98006e48900000
:103e10000080fb00f10020000008dd000080ea00c7
:103e2000000f98003e009000900078000e0890006f
:103e3000808060001e5890000081fb006e4890005a
:103e40000080fb000010dd00810070003e0090004b
:103e5000010878002e50900067406000004040004c
:103e6000604f98006e4890000080fb0031002000f9
:103e70000008dd000080ea00000f98002e0090008e
:103e8000900078000e089000808060002e5890000e
:103e90000081fb006e4890000080fb000010dd00f8
:103ea000810070002e009000010878002e509000d4
:103eb0000080fb00110020000008dd008000780079
:103ec000a020800001007000a02088000004a9004c
:103ed0000080fa00000006001200fa00204f98004f
:103ee00062079800730798000157980014579800cc
:103ef0002e4890000080fb000000400000004000c1
:103f00008000780000432000008f40001e80e80001
:103f1000100798000004a8000e5090000004e00074
:103f2000250032006e009000fe0090004208de0086
:103f300080007800f07f200000806000200798005b
:103f40006e009000fe0090004008de000000780047
:103f50006300600030079800ee0090004107980071
:103f60001e5090000004e000090032002e00900076
:103f7000c500dd003e009000010070008000780068
:103f80000130a0001e00780001087800060037000c
:103f90002e009000c500dd003e0090008100700002
:103fa0001e007800010878001e009000ce009000ee
:103fb0000108780015003700ee009000f07f200027
:103fc00000806000200798001e5090000004e00070
:103fd000070032002e0090004500dd0080007800d0
:103fe0000130a0001e0078000108780004003700ae
:103ff0002e009000c500dd001e007800010878004a
:104000001e0090008000eb00010878000004a90069
:104010000080fa00000006000400fa00004f78005b
:10402000110798001e4078000004e00002003a00ea
:104030001e009000450207000080fa000000060004
:104040000000fa000028ef000228ef000080fa00cc
:10405000000006000400fa00004f780011079800e5
:1040600000408000e10f500012003200e10f5000cc
:1040700003003900e20f5000260032003c003700f8
:10408000a0cab3009e40780080cf500005003200e7
:104090001e0090001e48780010002000104088008c
:1040a0003700370010002000004088000228ef0091
:1040b000330037001e00fb00a1fa2f00810f5000d3
:1040c00003003200e40f4000040032000a00370011
:1040d00020002000004088000d0037001e009000e6
:1040e000a1cab300014878001000200010408800e9
:1040f0000028ef00060037001e0090001e487800e0
:1041000020002000104088000028ef000000000080
:104110001b0037001e00fb00a1fa2f00810f50008a
:1041200009003200e40f40000a003a00200020009d
:10413000104088000028ef001e009000a1cab300c4
:104140000148780009003700400020001040880036
:10415000060037001e0090001e4878003000200046
:10416000104088000028ef00000000000400370025
:10417000a1e828000040eb00a7ff070000000000b6
:10418000104080000080fa00000006000000fa00e5
:10419000204080000080fa00000006000000fa00c5
:1041a00006c8bf000080fa00000006000000fa0008
:1041b000404080000080fa00000006000200fa0083
:1041c00051408000010f78000a28ef001e0078009f
:1041d0000080fa00000006000000fa000428ef004a
:1041e0000a28ef0096ff07000080fa000000060092
:1041f0000000fa000a28ef000080fa000000060024
:104200000000fa00820f20008000eb00e081200017
:10421000f4f30700820020008000eb006091200092
:10422000f0f307000080fa00000006000000fa002a
:10423000204080000000e00009003a00504080006b
:104240000000e00006003a0041408000f00f20002e
:10425000808f500002003a0010002000010037005b
:104260000000eb00004078000080fa00000006002b
:104270000000fa00204080000000e00009003a0041
:10428000504080000000e00006003a0041408000fd
:10429000f00f2000808f500002003200100020003c
:1042a000010037000000eb00004078000080fa00b9
:1042b000000006000200fa00004f78001e4078005f
:1042c0000080fb004200de00004078000080fb0020
:1042d0000080fa00000006000200fa00004f78009b
:1042e0001e00fb00630060000000e8000080fa0090
:1042f000000006000200fa000000eb00000f78004a
:1043000041408000d0032000808f5000050036001f
:1043100050002000504088000428ef000000eb000f
:104320001700370040408000c200dd00e08120001f
:1043300000804000100f78001e0078000000e000b0
:1043400005003a0040002000504088000428ef009b
:104350000000eb000a003700404080002e000700fc
:104360000004e00005003a00700020005040880082
:104370000428ef000000eb00010037001e00780069
:104380000080fa00000006000800fa0020079800ec
:10439000614798002e0090004300de00000f780077
:1043a0002e00900067006000110020000008dd0072
:1043b000204798006e4090000004e00009003200a1
:1043c000609120001e004000904078002e40900038
:1043d00080c07000609120001e00400001487800fd
:1043e0000b003700609120001e0040001040780054
:1043f000804078002e40900000c0ea0000c06000bd
:1044000080407800609120001e0040000148780044
:104410000080fa00000006000600fa00200798005d
:104420002e0090004300de00000f78002e00900068
:1044300067006000110020000008dd0020479800a0
:10444000609120001e004000904078002e409000b7
:1044500000c060000080fb000000ea004f00de00aa
:10446000004078000080fa00000006000200fa0018
:10447000000f7800404080004200dd008080e800ae
:10448000e081200000804000104078008080fb0028
:104490001e00e900808f50000500320060002000ff
:1044a000504088000428ef000040eb000100370076
:1044b00010c0b3000080fa00000006000000fa00ff
:1044c000204080000000e0000300320042ff0700af
:1044d0002000200050408800504080000080fa00fa
:1044e000000006000400fa002047980061802000c8
:1044f0002e409000d7fe0700000f78001e007800c5
:10450000e20f50001c003200e20f500005003e0098
:104510000000e00008003200e10f500022003200ed
:104520001d003700e30f50000a003200e40f500076
:104530000d00320018003700204080000000e0002d
:1045400002003a0010002000204088005040800007
:10455000ab003700100020005040880020002000f1
:10456000000f780013003700100020005040880032
:1045700050408000a200370020408000e10f500032
:104580000b00320030002000504088001000200056
:10459000204088000700370011ee28000040eb00a3
:1045a0009dfe0700030037000000000001003700f7
:1045b0000000000020408000e20f50006100320047
:1045c000e20f500005003e000000e000080032004d
:1045d000e10f5000150032007f003700e30f50005c
:1045e00067003200e40f5000700032007a0037009c
:1045f0001e007800e10f500007003a005040800094
:10460000e20f5000010032000a28ef00f00f2000f6
:10461000404088000400370091f328000040eb0080
:104620007dfe070000000000740037001e007800c7
:10463000e10f500003003200e20f50001000320082
:104640003b0037006180200091407800a0cab30091
:1046500000c068000080fb000000e9004f00de00a1
:104660000040780011f928006bfe07000428ef00d5
:104670000a28ef00f00f200040408800300037008b
:1046800006c8bf000000fb00e30f40000800320036
:10469000e30f400003003c00e40f40000b00320039
:1046a0000e003700e10f40000c003c000300370013
:1046b00030002000204088001c0037000428ef0054
:1046c000800020005040880018003700a1ff28001b
:1046d0000040eb0050fe07001400370006c8bf0082
:1046e000f4fe07004040880006c8bf00fafe07003d
:1046f00060408800fffe0700704088007040800026
:104700000000e00001003a0008003700604080002f
:1047100056ff07000004e00001003a0003003700e4
:104720002000200020408800000000000400370026
:10473000210529000040eb0037fe070000000000c3
:104740002e0037007040800061802000914078008a
:10475000014878000000e800704088006040800058
:104760000000e90060408800604080000000e00038
:104770001d003a000a28ef000428ef001f00370050
:1047800006c8bf000000fb0040408800d9fe0700bb
:1047900070408800704080000000e000140032008b
:1047a00040002000204088001400370006c8bf00e9
:1047b0000080fb000000e80060408800604080004e
:1047c0002aff07000004e0000b0032002000200058
:1047d0002040880009003700a10a29000040eb00b2
:1047e0000dfe070005003700000000000300370041
:1047f0000000000001003700000000005040800071
:104800000080fa00000006000000fa00504080001e
:104810000000e0000500320050408000e80f50002a
:1048200002003e0010002000010037000000eb00f5
:1048300000407800211a2900f7fd07005040800051
:10484000800040006094200000804000100078004c
:104850000080fa00000006000000fa00f8070700d8
:104860000080fa00000006000400fa00004f780003
:10487000110798001e4078000004e00002003a0092
:104880001e009000310007000080fa0000000600c2
:104890000000fa002c03a800c002a900c602a9006b
:1048a0006840a90000a82100610020008040880025
:1048b00091408800c402a9000080fa0000000600b0
:1048c0000000fa00804080009140800061005000ac
:1048d000e08058008040880091408800804080003f
:1048e00091408000e00f5000e08f580005003a0032
:1048f0000600070000a82100610020008040880019
:10490000914088000080fa00000006000000fa00d4
:10491000201680006100600000f0a7000000ea009f
:104920000000e9004f00de00004078000080fb003e
:1049300061006000211680000100a10001007000ec
:10494000201688000080fa00000006000200fa002d
:10495000000f7800c04080000000e00003003a0033
:104960009e007800c14088000000fe000080fa0030
:10497000000006000600fa001007980021079800c2
:104980009e009000010f78001e009000ae00900085
:104990004008de000040780032e0b7001e007800da
:1049a0001080ba008000eb00c001dd000200200092
:1049b0001e0078001000ba008000eb0000007100bb
:1049c000818071000080fa00000006000e00fa00ed
:1049d00000002000f10f2000e6ff070030079800dc
:1049e0004107980020002000f10f2000e1ff0700a0
:1049f000500798006107980010c0b300004f78007e
:104a00002092280010079800209228002007980084
:104a10003e019000ce019000d067200001002000f0
:104a2000800f5100818f590003003a00a0922800a6
:104a300010079800020037000040eb00004f78009c
:104a40005e009000ee009000220023000300200092
:104a5000820f5000838f58000d0032003200230077
:104a600003002000820f5000838f58000b0032009b
:104a70001200230003002000820f5000838f580093
:104a800009003a00a093280020079800060037008c
:104a9000d0932800200798000300370000942800d6
:104aa00020079800000000003094280084010700cf
:104ab0003e009000ce0090000602070000952800fe
:104ac0007f0107001e0090007d010700309528003f
:104ad0007b0107005e009000ee009000fd010700e2
:104ae00000952800760107002e0090007401070051
:104af00000962800720107001e4078000004e000c4
:104b000002003a00309628006d0107000080fa008c
:104b1000000006000000fa00103a80004c00de00a1
:104b2000674060000080fb00e30f50001b00320074
:104b3000e30f500007003c00e10f5000110032006d
:104b4000e10f500012003c000000e0000a003200bb
:104b500021003700e50f500016003200e50f50002d
:104b600011003500e60f500015003200e70f50002d
:104b70001600320018003700a0bf280050010700bf
:104b80001800370070c028004d01070015003700dd
:104b9000d0c128004a0107001200370070c3280066
:104ba000470107000f003700a0c528004401070097
:104bb0000c00370090c628004101070009003700ab
:104bc000b0c728003e01070006003700b0c8280023
:104bd0003b01070003003700a0c928005bff070066
:104be000000000000080fa00000006000200fa0049
:104bf0000040eb00004f7800003a80006800600041
:104c00000000e0000300320030cb28002c01070038
:104c10004067a900003a8000640060000000e000e6
:104c20000300320030cd2800250107004047a900cd
:104c300020cf280022010700003a800061006000b8
:104c40000000e0000c00320010c0b300004f7800fc
:104c500010d028001a0107004007a9004027a9002a
:104c60001828ef001a28ef00c08120008000eb0018
:104c7000010878004d003700013a80000004200050
:104c8000008060000000e00006003200c0d0280074
:104c90000b01070010c0b300004f780040c7a90007
:104ca00040e7a900003a8000700060000000e000ca
:104cb0000d00320010c0b300004f7800d0d12800a2
:104cc000ff000700d04080000000e000020032003a
:104cd000d0408000fa00070000d32800f800070049
:104ce0004087a90040e7a900013a800000082000a1
:104cf000008060000000e0000500320010c0b3003a
:104d0000004f780020d32800ed00070040e7a900fd
:104d1000003a8000620060000000e0000500320000
:104d200010c0b300004f780030d42800e400070022
:104d30004027a900013a80000000280000806000a0
:104d40000000e0000500320010c0b300004f780002
:104d5000f0d42800da00070041e7a900013a8000fa
:104d600000002400008060000000e0000500320028
:104d700010c0b300004f7800f0d52800d000070025
:104d800041c7a900013a8000002020000080600097
:104d90000000e0000500320010c0b300004f7800b2
:104da00030d72800c60007004127a9001e40780020
:104db0000004e00002003a00c0d82800c00007004c
:104dc000c04080000000e00019003200c0d9280077
:104dd000bb000700c0408000b9000700c081200070
:104de000100078000000e0000b003200c0da28005c
:104df000b3000700e04080004800de006f40600024
:104e00001d01070070db2800ad000700e0408000b6
:104e10000074a1001801070090dc2800a80007001a
:104e20001828ef00c08120008000eb000108780006
:104e3000e6fe070037ff07000080fa0000000600ca
:104e40000200fa00000f780091fe070082fe0700c2
:104e50000040280031002000f001070063ff070038
:104e60001e007800960007000080fa00000006008f
:104e70000800fa00881f7800200798003107980082
:104e80002e009000be009000c5ef0700008fbe000e
:104e90001e00be00e0ef07000001be002e009000e3
:104ea000be0090000bef070018c0b3000200200006
:104eb00003f02300b6ef07000000e000010035001a
:104ec0000044eb000804e000020032001e00be00b7
:104ed0000400370012002000030020003e004100c3
:104ee000ae8049004f0478000080fa000000060000
:104ef0000600fa00881f7800100798002107980024
:104f00001e009000ae009000a5ef0700000f780093
:104f10001e0078008000eb00bfef07000001be001c
:104f20001e009000ae009000eaee070018c0b3002b
:104f30000200200003f0230095ef07000000e000ce
:104f4000010035000044eb000804e00002003200dc
:104f50001e007800010037001e00e8004f047800b2
:104f60000080fa00000006000e00fa00889fbe00d4
:104f700020079800310798004207980054079800ce
:104f80006507980010c0b300ce009000e18f50007c
:104f9000010036000040eb00c1dc280032fe0700b3
:104fa0004e0090000000e00012003a002e00900039
:104fb000be00900098ef07000004be005e00900065
:104fc000ee00900094ef07000001be000800be0054
:104fd0001eef070002002000031824001bef07004b
:104fe0000200200003f82300baee0700008fbe0085
:104ff000110037002e009000be00900086ef0700e1
:105000000004be005e009000ee00900082ef0700fa
:105010000001be000800be000cef070002002000e7
:105020000308240009ef07000200200003f8230012
:10503000a8ee0700008fbe0018c0b30002f82f00d2
:10504000f37724001e00be0051ef07000000e000cf
:10505000010035000044eb00a1e228000840780080
:1050600001fe07001e00be00a1ff07004f04be00a6
:105070000080fa00000006000200fa00004f7800ed
:10508000e04a8000e10f500003003200e20f5000c0
:1050900004003200060037001e4078005b0707005e
:1050a000050037001e407800ca07070002003700dd
:1050b0008057290025fe07000080fa000000060046
:1050c0000200fa00000f7800040037001e0078008c
:1050d00010407800e8ff07001e0fe8001e0078006f
:1050e000104078000004e000f8ff3a000080fa0069
:1050f000000006000a00fa00200798003107980017
:10510000024f98003e0090000000e00002003a00cc
:105110000000eb00240037000000eb0010079800af
:105120000000eb0010079800170037000e489000b1
:105130000004e0000300320020010700004f780067
:10514000020037000d010700004f78001e40780074
:10515000ea4f5000100032001e407800ed4f500022
:105160000d0032009e4078002e009000014878002b
:105170002e0090000000e800200798001e0090001c
:105180000000e800100798009e0090003e0090008c
:10519000808f5000e5ff39002e0090008040eb002a
:1051a000014878001e0090000080fa000000060010
:1051b0000400fa00000f7800110798001e0090000c
:1051c0000041eb00800078001e007800c9ff070056
:1051d0000080fa00000006000400fa00000f7800ca
:1051e000110798001e00900012c0b30080007800e4
:1051f0001e007800bfff07000080fa0000000600d4
:105200000400fa00204798002e4090000080fb0028
:105210004400de00004f78001e407800e94f500047
:105220000400360071c3b3001ec0400092ff0700a7
:105230000300370001c3b3001ec040008eff07000b
:105240002e4090006f4f60001e407800e94f5000e4
:105250000400360071c3b3001ec0400086ff070083
:105260000300370001c3b3001ec0400082ff0700e7
:105270000080fa00000006000200fa00004f7800eb
:10528000505c29008eff07001e407800dcff0700fd
:105290000080fa00000006000400fa0010079800e1
:1052a000505c290086ff07001e0090004800de00c9
:1052b000004f78001e407800d1ff07001e009000cc
:1052c000004f78001e407800cdff07000080fa00f4
:1052d000000006000600fa00100798002107980059
:1052e000505c290076ff07001e009000ae00900081
:1052f0004808de00004f78001e407800c0ff07001d
:105300001e009000ae0090004008de00004f7800c4
:105310001e407800baff07001e009000ae0090000b
:105320004809dd004800de0000007100c808de000a
:10533000004f78001e407800b1ff07001e0090006b
:10534000004f78001e407800adff07000080fa0093
:10535000000006000a00fa00004f98000040eb0031
:10536000004f78008e4890001147980000c3b300aa
:105370002047980000c3b3003047980000c3b30033
:10538000404798000040eb00504798009e40900036
:1053900070ccb30080cf5000060036002e40900045
:1053a00000c0e800204798001e4090008043b000f5
:1053b000104798009e40900030c6b30080cf500048
:1053c000070036002e4090000040e800204798007b
:1053d0009e409000c0c9b30000c040001047980034
:1053e0000040eb00004f78001e0037001e80fb00dd
:1053f00001692900e14078001e40900080cf5000f4
:1054000017003e001e80fb004200de0000407800d6
:105410008080fb000101e8000080fb000000e80044
:105420000000470020409000804078001e80fb0074
:10543000836929006340780000c040008040780004
:1054400002004700214098001e80fb0001692900ee
:10545000614078009e40900000c0500010479800c6
:105460001e4fe8001e407800e74f5000dfff360077
:105470000040eb00504798000e80e80010ff070046
:105480000080fa00000006000c00fa0050079800a7
:105490000040eb00004f7800de00900011079800fc
:1054a00000c3b3004047980000c3b30050479800c2
:1054b00000c3b3006047980000c3b3007047980072
:1054c00000c3b300004f98000040eb00004f78008d
:1054d000210037001e80fb0080004000406629004c
:1054e00000804000900078001e009000808f5000e7
:1054f00018003e001e80fb004200de0000407800e5
:105500000081fb000080fb0000004700404090004d
:10551000804078001e80fb0063006000c3682900a3
:105520006340780000c040008040780002004700df
:10553000414098001e80fb0080004000406629002a
:1055400000804000100078009e0090000080500015
:10555000100798001e4fe8001e407800f34f5000df
:10556000dcff36000040eb00104f9800640047005d
:10557000d3fe07000080fa00000006000000fa00d9
:10558000e04a8000e10f500003003200e20f5000bb
:1055900003003200040037002f0607000500370023
:1055a0009f06070003003700805c2900e7fc070026
:1055b0000040eb000080fa00000006000200fa0044
