:020000040000fa
:080000000002040000000000f2
:020000040000fa
:04000800e80200000a
:020000040000fa
:04000c00e802000006
:020000040000fa
:04001000e802000002
:020000040000fa
:04001400e8020000fe
:020000040000fa
:04001800e8020000fa
:020000040000fa
:04001c00e8020000f6
:020000040000fa
:04002000e8020000f2
:020000040000fa
:04002400e8020000ee
:020000040000fa
:04002800e8020000ea
:020000040000fa
:04002c00e8020000e6
:020000040000fa
:04003000e8020000e2
:020000040000fa
:04003400e8020000de
:020000040000fa
:04003800e8020000da
:020000040000fa
:04003c00e8020000d6
:020000040000fa
:04004000e8020000d2
:020000040000fa
:04004400e8020000ce
:020000040000fa
:04004800e8020000ca
:020000040000fa
:04004c00e8020000c6
:020000040000fa
:04005000e8020000c2
:020000040000fa
:04005400e8020000be
:020000040000fa
:04005800e8020000ba
:020000040000fa
:04005c00e8020000b6
:020000040000fa
:04006000e8020000b2
:020000040000fa
:04006400e8020000ae
:020000040000fa
:04006800e8020000aa
:020000040000fa
:04006c00e8020000a6
:020000040000fa
:04007000e8020000a2
:020000040000fa
:04007400e80200009e
:020000040000fa
:04007800e80200009a
:020000040000fa
:04007c00e802000096
:020000040000fa
:04008000e802000092
:020000040000fa
:04008400e80200008e
:020000040000fa
:04008800e80200008a
:020000040000fa
:04008c00e802000086
:020000040000fa
:04009000e802000082
:020000040000fa
:04009400e80200007e
:020000040000fa
:04009800e80200007a
:020000040000fa
:04009c00e802000076
:020000040000fa
:0400a000e802000072
:020000040000fa
:0400a400e80200006e
:020000040000fa
:0400a800e80200006a
:020000040000fa
:0400ac00e802000066
:020000040000fa
:0400b000e802000062
:020000040000fa
:0400b400e80200005e
:020000040000fa
:0400b800e80200005a
:020000040000fa
:0400bc00e802000056
:020000040000fa
:0400c000e802000052
:020000040000fa
:0400c400e80200004e
:020000040000fa
:0400c800e80200004a
:020000040000fa
:0400cc00e802000046
:020000040000fa
:0400d000e802000042
:020000040000fa
:0400d400e80200003e
:020000040000fa
:0400d800e80200003a
:020000040000fa
:0400dc00e802000036
:020000040000fa
:0400e000e802000032
:020000040000fa
:0400e400e80200002e
:020000040000fa
:0400e800e80200002a
:020000040000fa
:0400ec00e802000026
:020000040000fa
:0400f000e802000022
:020000040000fa
:0400f400e80200001e
:020000040000fa
:0400f800e80200001a
:020000040000fa
:0400fc00e802000016
:020000040000fa
:04010000e802000011
:020000040000fa
:04010400e80200000d
:020000040000fa
:04010800e802000009
:020000040000fa
:04010c00e802000005
:020000040000fa
:04011000e802000001
:020000040000fa
:04011400e8020000fd
:020000040000fa
:04011800e8020000f9
:020000040000fa
:04011c00e8020000f5
:020000040000fa
:04012000e8020000f1
:020000040000fa
:04012400e8020000ed
:020000040000fa
:04012800e8020000e9
:020000040000fa
:04012c00e8020000e5
:020000040000fa
:04013000e8020000e1
:020000040000fa
:04013400e8020000dd
:020000040000fa
:04013800e8020000d9
:020000040000fa
:04013c00e8020000d5
:020000040000fa
:04014000e8020000d1
:020000040000fa
:04014400e8020000cd
:020000040000fa
:04014800e8020000c9
:020000040000fa
:04014c00e8020000c5
:020000040000fa
:04015000e8020000c1
:020000040000fa
:04015400e8020000bd
:020000040000fa
:04015800e8020000b9
:020000040000fa
:04015c00e8020000b5
:020000040000fa
:04016000e8020000b1
:020000040000fa
:04016400e8020000ad
:020000040000fa
:04020800e802000008
:020000040000fa
:04020c00e802000004
:020000040000fa
:04021000e802000000
:020000040000fa
:04021400e8020000fc
:020000040000fa
:04021800e8020000f8
:020000040000fa
:04021c00e8020000f4
:020000040000fa
:04022000e8020000f0
:020000040000fa
:04022400e8020000ec
:020000040000fa
:04022800e8020000e8
:020000040000fa
:04022c00e8020000e4
:020000040000fa
:04023000e8020000e0
:020000040000fa
:04023400e8020000dc
:020000040000fa
:04023800e8020000d8
:020000040000fa
:04023c00e8020000d4
:020000040000fa
:04024000e8020000d0
:020000040000fa
:04024400e8020000cc
:020000040000fa
:04024800e8020000c8
:020000040000fa
:04024c00e8020000c4
:020000040000fa
:04025000e8020000c0
:020000040000fa
:04025400e8020000bc
:020000040000fa
:04025800e8020000b8
:020000040000fa
:04025c00e8020000b4
:020000040000fa
:04026000e8020000b0
:020000040000fa
:04026400e8020000ac
:020000040000fa
:04026800e8020000a8
:020000040000fa
:04026c00e8020000a4
:020000040000fa
:04027000e8020000a0
:020000040000fa
:04027400e80200009c
:020000040000fa
:04027800e802000098
:020000040000fa
:04027c00e802000094
:020000040000fa
:04028000e802000090
:020000040000fa
:04028400e80200008c
:020000040000fa
:04028800e802000088
:020000040000fa
:04028c00e802000084
:020000040000fa
:04029000e802000080
:020000040000fa
:04029400e80200007c
:020000040000fa
:04029800e802000078
:020000040000fa
:04029c00e802000074
:020000040000fa
:0402a000e802000070
:020000040000fa
:0402a400e80200006c
:020000040000fa
:0402a800e802000068
:020000040000fa
:0402ac00e802000064
:020000040000fa
:0402b000e802000060
:020000040000fa
:0402b400e80200005c
:020000040000fa
:0402b800e802000058
:020000040000fa
:0402bc00e802000054
:020000040000fa
:0402c000e802000050
:020000040000fa
:0402c400e80200004c
:020000040000fa
:0402c800e802000048
:020000040000fa
:0402cc00e802000044
:020000040000fa
:0402d000e802000040
:020000040000fa
:0402d400e80200003c
:020000040000fa
:0402d800e802000038
:020000040000fa
:0402dc00e802000034
:020000040000fa
:0402e000e802000030
:020000040000fa
:0402e400e80200002c
:020000040000fa
:0402e800e802000028
:020000040000fa
:0402ec00e802000024
:020000040000fa
:0402f000e802000020
:020000040000fa
:0402f400e80200001c
:020000040000fa
:0402f800e802000018
:020000040000fa
:0402fc00e802000014
:020000040000fa
:04030000e80200000f
:020000040000fa
:04030400e80200000b
:020000040000fa
:04030800e802000007
:020000040000fa
:04030c00e802000003
:020000040000fa
:04031000e8020000ff
:020000040000fa
:04031400e8020000fb
:020000040000fa
:04031800e8020000f7
:020000040000fa
:04031c00e8020000f3
:020000040000fa
:04032000e8020000ef
:020000040000fa
:04032400e8020000eb
:020000040000fa
:04032800e8020000e7
:020000040000fa
:04032c00e8020000e3
:020000040000fa
:04033000e8020000df
:020000040000fa
:04033400e8020000db
:020000040000fa
:04033800e8020000d7
:020000040000fa
:04033c00e8020000d3
:020000040000fa
:04034000e8020000cf
:020000040000fa
:04034400e8020000cb
:020000040000fa
:04034800e8020000c7
:020000040000fa
:04034c00e8020000c3
:020000040000fa
:04035000e8020000bf
:020000040000fa
:04035400e8020000bb
:020000040000fa
:04035800e8020000b7
:020000040000fa
:04035c00e8020000b3
:020000040000fa
:04036000e8020000af
:020000040000fa
:04036400e8020000ab
:020000040000fa
:100400006fa020000e7f22000e0188000000000077
:10041000000020000000e000020032000001200087
:100420002002880014000700db0107000000e00044
:1004300003003a00c04324000100200002003700fe
:100440000000200001002000810f70000100320038
:1004500014000700000020000000e000020032004d
:1004600000000200000000009a45020000000000a9
:100470000040da000000fe004440a900601721009f
:100480000000e0000300320000002000a00188000e
:100490004440a800000006008a1f78008b1f7800e7
:1004a0000000060091018800800478000000eb0045
:1004b0001a003700e284440032a0b4009905ba0063
:1004c000e284440032a0b4009906ba00e2844400f9
:1004d00032a0b4000006eb00476fde00fd07b2005b
:1004e000636ce10003003a00ebff07000000eb0043
:1004f0000a003700606ce10004003a00005deb0088
:100500008b05e900fdff3e00040037006168e10053
:10051000010032000086eb000b00070019c7ba008b
:100520001905ba000e04e00003003a000a00e000da
:10053000e0ff3a0000000600fe07b2009e018800be
:100540008a047800f5ff3700395dba008b05e900b1
:100550000c003200295dba008b05e900080032006a
:100560000c00e00003003a00e284440032a0b40032
:10057000f5ff370019ddba008b05e900faff3a00f4
:100580008904e800e184440032a0b40000000600c1
:10059000104104000000000036410400000000008b
:1005a000f4410400000000001a42040000000000b2
:1005b0004a09040000000000760904000000000061
:1005c00054100400000000000000040000000000bf
:1005d0003600f800809fbe00829fbe00849fbe0050
:1005e000869fbe003400f80000002000a0018800b3
:1005f0000000fa00c0812000010780000108780097
:10060000402b2900d61507000080fa003400f900bd
:100610004f03be004f02be004f01be004f00be00a0
:100620003600f900004006000c00fa003007980080
:1006300041079800520798003e0090006400400077
:10064000104078000000fb00e1062000810f500000
:1006500011003200e1062000810f500007003c002d
:1006600011032000810f50002300320021032000dd
:10067000810f5000300032003f003700210720007a
:10068000810f50001400320051072000810f5000ec
:100690000900320038003700632107000000e00045
:1006a000020032000080eb00540037000000eb0035
:1006b000000f7800320037005b2107000000e000e7
:1006c000020032000080eb004c00370010002000d8
:1006d000000f78002a003700532107000000e000d7
:1006e000020032000080eb004400370020002000b0
:1006f000000f780022003700f04f8000e10f50001b
:1007000002003a000080eb003c003700011180003d
:1007100000002800008060000000e00003003a00b4
:100720000040280031002000dc1e070030002000bf
:10073000000f780012003700f04f8000e20f5000e9
:1007400002003a000080eb002c003700811180008d
:1007500000002800008060000000e00003003a0074
:1007600000402800310020003e1f0700400020000c
:10077000000f7800020037000080eb001f003700f8
:100780004e00900063006000100798004e0090003b
:1007900000f0a000200798001e0090000000e0007c
:1007a000030032001e009000e20f500006003a00e5
:1007b0001e007800c300dd00a09a200000804000e9
:1007c000ae009000010878001e009000e10f50007c
:1007d000030032001e009000e20f500006003a00b5
:1007e0001e007800c300dd00c09a20000080400099
:1007f000ae009000010878001e0078000080fa002a
:10080000000006000800fa00881f78001007980012
:1008100021079800320798001e0090000000e000b9
:10082000030035001e009000e40f50000200340069
:100830000080eb00490037001e0090000000e0003f
:1008400007003a00504d80000000e0000400350031
:100850000001eb000100240080402a0072ff070025
:100860001e0090004300dd00e4004000609a20007c
:1008700000804000100078000000e00002003a0014
:100880000080eb00350037000000eb00000f78001f
:100890002d0037002e0090001e0440001e00900026
:1008a0004300dd008080e800609a20000080400066
:1008b0001000780000000100004c78001e0090003d
:1008c0004300dd00e4004000609a2000008040000a
:1008d0009000780000002400008060000000e0002c
:1008e000070032002e0090001e00400010407800eb
:1008f000ea4f500002003a001e0fe80016003700d1
:100900001e0090004300dd00e4004000609a2000db
:10091000008040009000780000002400008060000b
:100920000000e000070032002e0090001e00400092
:1009300010407800ed4f500002003a001e0fe80012
:10094000050037001e0fe8003e0090009e00780072
:10095000808f5000cfff39001e0078004f047800d0
:100960000080fa00000006000800fa001007980056
:1009700021079800320798001e0090000000e00058
:10098000030035001e009000e40f50000200340008
:100990000080eb00470037001e009000e10f500080
:1009a00007003a00a04d80000000e0000400350080
:1009b0000001eb0011002400e0402a001aff0700ac
:1009c0001e009000e20f500007003a00e04d80004a
:1009d0000000e000040035000001eb0011002400dd
:1009e00050412a0010ff07001e0090004300dd0068
:1009f000e6004000609a200000804000100078006f
:100a00000000e00002003a000080eb0029003700ff
:100a10000000eb00000f7800210037001e0090005e
:100a20004300dd00e6004000609a200000804000a6
:100a30009000780000002400008060000000e000ca
:100a40000d0032002e0090001e0040001040780083
:100a5000ea4f500008003a001e009000c300dd007d
:100a6000609a20000080400090007800a0c0b30091
:100a700001000100090037001e009000c300dd00e6
:100a8000609a200000804000900078002e009000c6
:100a90001e00400010407800010001001e0fe80019
:100aa0003e0090009e007800808f5000dbff3900f0
:100ab0001e0078000080fa00000006000200fa0024
:100ac000000f78000000eb000080fa000000060034
:100ad0000800fa00000f780012079800230798001a
:100ae000310798006000b8000080fa00000006009e
:100af0000a00fa0051002000b1bf9f00c0bf9f0054
:100b00006a805700580607005fb897000080fa0017
:100b100000000600889fbe008004780020508000fe
:100b20000000e00004003a000e0007000084eb0023
:100b30000000e00008003500285080000900e000b7
:100b40000500320009004400060007000000e00034
:100b500001003d000084eb00080078004f04be0057
:100b600000000600800078000100e00003003a0069
:100b70000000200020508800000005000080eb00ed
:100b800002002000828f500002003e0021508800a9
:100b90000000eb00000006000000050003f0a200ca
:100ba000889fbe008a9fbe008c1f78000601070048
:100bb0000d0133006450e1004f0032006420e10079
:100bc0005200320003826c0007003b000905d00090
:100bd0000306d000820f54000c065d0002003900ad
:100be00002003200890178000306780085825500f2
:100bf00004003d000003fd008103fd008502ea00c2
:100c00008b854200840f720002003b0060001000e0
:100c1000e08018006011b8000005eb007a28e100c0
:100c20000a00390006007800c75ddd00f707b20052
:100c3000878075002d003700828171000a017800dd
:100c4000610560008180d1000080d3008502e90049
:100c5000f9ff3b00060440008784480002003b0087
:100c600060041400e0841c000988a300070032001f
:100c70008a81710082817100610164008904d10060
:100c80000884d3008b05e800170037000978a3001b
:100c900013003a000b00e000130034008b05e9005c
:100ca0000804440089844c000a4474000978a300b5
:100cb0000d003a000b00e000070034008b05e9004e
:100cc0000804440089844c0001003a000b00200015
:100cd0000978a300f7ff32000001eb0002003700a3
:100ce000828171000a0178007c0007000cf0a700e7
:100cf00001f0a000c50037006420e10002003a00c6
:100d0000838f6c00c50033000801be000200be00e6
:100d1000be003700889fbe008a9fbe008c1f7800ef
:100d2000a9000700b000330003866c006450e100a6
:100d30002e0032006420e100330032006150e100f7
:100d40002f0032006120e10031003200858555001e
:100d5000eb07b00009002000080420000500370060
:100d60000804440089844c000a0031000603430053
:100d700087834b000001530081815b00f8ff330043
:100d80000203be000800a0000804440089844c004f
:100d9000f6ff3900c639dd0083017300010032001f
:100da000130020008904d1000884d3000998a3000f
:100db000050032000800a7000300a0008904d1004c
:100dc0000884d3008b05e8008904d1000884d3008f
:100dd0000001eb000281d2004000070001f0a100f9
:100de0000cf0a70001f0a000880037006420e100ab
:100df0008a0032000801be000200be00f7ff370083
:100e00006120e100850032006000b800f3ff370088
:100e10000000200001f82700f0ff3700839f6800e2
:100e20000100e00002003d0060001000e0801800ba
:100e30000300e00002003d0060011100e0811900a4
:100e4000ad0007004f00e00002003b006000100012
:100e5000e08018000000060014002000b6003700f3
:100e6000f4ff2f00b40037000001be00410007006e
:100e70000470a70003f0a10003f8a30013003a00d8
:100e80006509b10010003200090035006928e10051
:100e900002003500010028000000050000004000ad
:100ea000818048008502e900fcff3a00000006004e
:100eb000f88f4200050035008100d1000080d3008a
:100ec0008502e800fcff3a00000006008000eb000d
:100ed000000005006011b800b2003700810020005a
:100ee000618055000b003d000b00200061fe2f00cb
:100ef0000100e1001d003400828171006101640085
:100f00008904d1000884d3000000e800faff3a0009
:100f100071002000610064000300700002006000a6
:100f20000900320061044400e0844c000988a500f7
:100f3000050032008b05e8006808e10002003a0075
:100f40008904d1000884d300f20f20000258e10088
:100f500005003d00c75ddd00f907b200898075001e
:100f600008007800000006000bf827008b007800ce
:100f700000000500c70ade00f107b200f50fb2005d
:100f800008003200e1cf4200020032000170a000f0
:100f900024000500810f70000100320004080500e4
:100fa00044000500810f700002003a0014000500a3
:100fb0008502e9000000400081c04800fcff3b00c2
:100fc0000170a000240005000004be00e9ff070036
:100fd0000003be000405be000200be00e5ff0700de
:100fe000844f7500000006000200be006450e1005e
:100ff000050036006420e100020036000968a30005
:1010000001003a000800be000160a0004f06780011
:101010004f05be004f04be0000000600f0ff2f0089
:10102000f1ff2700f9ff3700889fbe008a9fbe00ae
:101030008c1f7800e4ff0700ebff330003866c0091
:101040006450e100240032006420e10027003200f7
:101050006150e100220032006120e10021003200f5
:101060008b854200eb07b1000134b800003ab800ac
:101070000804420089844a00013ab8000030b800f0
:101080008880400009014a0004003300000040004d
:1010900081804800020149008b05e900c909dd0093
:1010a000830170000100320013002000c814de002c
:1010b0004814dd004709de001200b200c808de0057
:1010c0000884700085ff070001f0a1000cf0a70064
:1010d00001f0a000cdff37006120e100cfff32001a
:1010e0000801be000200be00f7ff37006150e100ba
:1010f000fcff3a00c9ff37006022b800060220005a
:101100000000d0008180d2000482d2008582d2000b
:101110000000a0000202520083825a000300310046
:101120000202420083824a000000a1000603e90097
:10113000f3ff3a0000000600889fbe008a9fbe00b1
:10114000841f7800a0ff07004f00780011003300d3
:10115000f0ff2f00838f6c0006003b000405650044
:101160000a00a7000800370009f0a60010002000c0
:1011700008003700820f5400838f5c0003003900a1
:101180001000200001003e000000200009f0a70030
:101190000000ea004f05be004f04be000000e00062
:1011a00000000600889fbe008a9fbe00008270007b
:1011b0000402710004827100260032000004be00a7
:1011c0000200be006011b8006b09200095022000eb
:1011d0000182cf000a0039000541b1000082cf0032
:1011e000070039000541b1000982cf000400390031
:1011f0000541b1000882cf00010039000541b1006e
:1012000005425200120032000a003b008281710048
:10121000610164008100d1000080d3008984d30083
:101220000884d3008b05e8000442e800f7ff3a0089
:10123000070037000804440089844c00000048007f
:10124000818048008b05e9000442e900f9ff3a007b
:1012500022ff07004f05be004f04be00000006003d
:101260008001780002003700815978000201e9000e
:101270000200e000fcff3a00000006008000780059
:10128000010178003104e000fdff3a000000510048
:1012900000000600889fbe0000047800010078006e
:1012a000820478008801780009017800110020008c
:1012b0002a010700890f5000010032000004eb00f2
:1012c000080078004f04be00000006000000fa008d
:1012d000e88157004fb9970061942000a094200046
:1012e000cc0007000080fa0000000600889fbe00c6
:1012f000000478000203be00810478000802780030
:1013000089017800120020000600be00a702070035
:10131000890f5000010032000004eb000800780043
:101320004f04be00000006006800fa00889fbe005f
:101330008a9fbe008004780001047800820578004e
:10134000030578008400780000f92f000f004000aa
:1013500094020700d98f9f00fb8f9f000000eb00d5
:10136000a09f9f00e88f9f009a84fb000904fb0068
:101370008904ea00cf4cde0050022000800f5400a8
:101380000d003200e18f54000b003a000901780093
:101390008a0078007f889700df89970003000100aa
:1013a000f08f9f000000e000950032002f9897001a
:1013b0000000e800a09f9f000905450050022000a2
:1013c000800f5400040032000800e000e6ff3a00fd
:1013d0002f9897008b0037000000eb00809f9f0044
:1013e000f0979f00e0979f00d0979f00c0979f00c5
:1013f000b0979f0007003700219e20000100500099
:1014000000004000619d200061007800cf989700a7
:1014100001007000c09f9f000a0478000805780052
:10142000ba4478008900fb00209e200030010700ac
:101430000000e000f0ff3a00a1c2b30081cf5400e9
:101440000e003a008f8897000180e900808f9f008e
:1014500010007800b09f9f000000e00005003d00f4
:101460000000ea00b09f9f004f9897000020a00066
:10147000c09f9f000804e80010003700b09f9f0045
:10148000880078000000eb0005003700f3ff27001c
:10149000830f5000020032006a02b90004004100cc
:1014a00001047800880078003101fb000203b100dc
:1014b000e90f5100f5ff3600b09f9f00e0c2b30076
:1014c000984f1000020032000080eb001900370036
:1014d000a0c2b300d84f100007003a008f889700d1
:1014e0000180e900808f9f0010007800909f9f008e
:1014f0000804e800100037000000eb00909f9f00f8
:101500008800780005003700f3ff2700830f5000a4
:10151000020032006a02b9000400410001047800b0
:10152000880078003101fb000203b100e90f51008f
:10153000f5ff3600909f9f00984478008900fb00db
:10154000e09c2000ea0007000000e00002003200fa
:101550000804e800010037008044eb00a97f9f00e9
:1015600080c6b30080cf540006003a0098cf140024
:1015700010003a0066405000a07f9f000804e80079
:101580000c003700c0c6b30080cf540009003a00f9
:1015900098cf140007003a0067404000d84f100071
:1015a00002003a006e4050000100370010c7b3003f
:1015b000a07f9f001801fb00c3fb2f008f8141001b
:1015c00001f92f008f80400020f92f000f0040000c
:1015d000150007000000e00009003a00c1fb2f00e1
:1015e0008f80400020f92f000f00400013010700fa
:1015f0000000e000020035000805e8005aff37004f
:101600000080eb004f05be004f04be000080fa00d2
:1016100000000600030278008201780001017800d2
:101620006197200040ff3700889fbe008a1f780026
:101630000004780030c5b300804f5100080032002c
:1016400030c7b300804f51000500320051c2b300d3
:1016500028089000814f510035003a0032003700d1
:101660000869900050c6b300804f51001a003a003c
:101670001101780064005100800878001000be005d
:10168000000c9800110c9800881190000300e000f5
:1016900007003d008081eb000001eb009103070093
:1016a0000001be008808900081005100080037004a
:1016b0000001eb008b030700008170000300320083
:1016c0000809900082005000010037008810900047
:1016d000410c98001d0037001180e9008008780057
:1016e000100578007a049800881490000900e00042
:1016f00004003d000a007800e0fe07008004780046
:1017000007003700090178008000eb000a0078002c
:10171000660007000000e000010032008a0450006b
:10172000490c9800090037008271780005003700e5
:10173000808141000204e00001003a00014178008c
:10174000824978000000e800200c98000000eb00bf
:101750004f0578004f04be0000000600889fbe00c1
:101760008a9fbe008c9fbe008e1f78000006780006
:101770000104780002007800830478000881b90031
:10178000020778000200e000420032000800e0009a
:101790004100320082057800c90090006900900085
:1017a000808f500004003900090078005c000700b9
:1017b0000000e00029003500004020001900600012
:1017c0000a0032000b017800a10020000c00780014
:1017d00036000700800678000d00e00006003200a9
:1017e000610516000a854600040037000b057800e5
:1017f0008006eb00010037000b05780049009000df
:10180000e9009000808050008a8f50000200310073
:10181000010578008006eb000a0178008c00780052
:101820002c0007008a855500490090000a004000fe
:10183000c00498000d00e0000400320009007800a8
:10184000290207000000e00004003a000b00e0005d
:10185000020032000a064600cfff37000080200059
:101860001900600002003200090078001e02070023
:1018700000c0200019006000020032004900900002
:10188000e00498008b055700110009008885d800f6
:10189000010037000000eb004f0778004f06be0044
:1018a0004f05be004f04be000000060003003700d5
:1018b000b0cf1000050032000201e900800178007d
:1018c0000200e000faff3a00000005000300780083
:1018d000000006008001780002003700b15978004e
:1018e0000201e9000200e000fcff3a0000000600ef
:1018f000020037000304e000060032000001780017
:1019000002007800b041780081cf5100f9ff3a0021
:10191000010037000001eb00020078000000060023
:10192000889fbe008a1f780000047800c8009000dd
:10193000680190000000eb00828f50003c003900ed
:10194000180078002200290002016000e20f510017
:1019500007003200012020000000e00001003500f7
:1019600001202400008c70000080eb003000370064
:101970000200260002006000820f500009003a00b9
:1019800038009000808f5000060039000800780071
:10199000d5010700800078000080eb000100e00026
:1019a00023003a001805780000c020000000650000
:1019b00018003a00a80490006002200008004000cf
:1019c000808f540013003a000020200072020700ac
:1019d000200498000000e00005003a002904980067
:1019e000490498008904e800390498000800370089
:1019f0000a60a0000a0c7800400498000120200032
:101a00008080400031049800400c9800500c9800f1
:101a100054010700280090005004980038009000fe
:101a20006004980000002600180c70000000eb0015
:101a30004f0578004f04be00000006000400fa00c5
:101a4000889fbe008a9fbe008c1f7800000478002b
:101a500001067800a81490002808900080845400a3
:101a60003808900080845400480890008084540016
:101a700058089000808454006808900080845400c6
:101a800078089000808454000002220090bf9f00dc
:101a900000032300a0bf9f00381090000028a3007f
:101aa00015003a000900e000130034000905780031
:101ab0008a057800e20f5500010036002b00200057
:101ac000c80190000b017800ee805700680090007c
:101ad00003000100600498000000e000aa0032004a
:101ae000181090000b004000101498000b055500d2
:101af0004240a900eeff3c00280990000200e000ef
:101b00000c003400c80190008c0078006800900040
:101b100003000100600498008080eb000000e000fa
:101b20009a00320098109000280890000080400031
:101b300010149800380d90000a00e00011003400e5
:101b40008a057800e20f5500010036002b002000c6
:101b5000c80190000b017800ec80570068009000ed
:101b600003000100600498000000e00086003200dd
:101b7000181090000b004000101498000b05550041
:101b8000edff370008699000c808900050c6b30008
:101b9000804f510008003a000100e00015003400b9
:101ba0005802900008099000980990006800900081
:101bb00004000100070037000100e0000d003400c0
:101bc000c801900001017800f800900068009000c2
:101bd00003000100600498008080eb000000e0003a
:101be0006a00320098109000480890000080400081
:101bf00010149800580d90000a00e0001100340005
:101c00008a057800e20f5500010036002b00200005
:101c1000c80190000b017800ec805700680090002c
:101c200003000100600498000000e000560032004c
:101c3000181090000b004000101498000b05550080
:101c4000edff3700086990006808900051c6b300a6
:101c5000814f51000d003a000000e0001c003400ec
:101c600078019000c8089000010141006111b8009e
:101c7000828fd2008381d2005802900080007800c9
:101c80006800900004000100090037000000e00037
:101c90000f00340078019000c808900081004100d6
:101ca000c801900000017800680090000300010066
:101cb000600498008080eb000000e00033003200f8
:101cc0009810900068089000008040001014980060
:101cd000780d90000a00e000110034008a057800b9
:101ce000e20f5500010036002b002000c8019000d3
:101cf0000b017800ec8057006800900003000100a1
:101d0000600498000000e0001f00320018109000ee
:101d10000b004000101498000b055500edff370034
:101d2000381090008000eb000028a300170032005c
:101d30000900e0001500340009057800e28f540026
:101d4000010036002a002000c80190000a01780036
:101d5000ee805700680090000300010060049800c6
:101d60000000e00008003200181090000a00400057
:101d7000101498008a8454004240a900eeff3c00f1
:101d80008000eb00010037008080eb00010078004c
:101d90004f0678004f05be004f04be000080fa00d9
:101da000000006000108780000000600e6874700f2
:101db000889fbe008a9fbe008c9fbe008e1f780049
:101dc00082bf9f0004047800029ab900f4b79f0014
:101dd0000400e000590032000fb997000200e00053
:101de000570032000006be0004077800c8009000cb
:101df00068009000808f50000400390008007800cf
:101e0000c7fe07000000e0003b0035000040200056
:101e1000180060000a0032008e017800a200200045
:101e20000c00be00af0107000005be000080750079
:101e3000070032008c0455008904e80005003700d3
:101e40008e0478000a0020000b00200001003700fb
:101e50008e04780048019000680090000200500055
:101e6000890f500003003100800478000a00200030
:101e70000b0020006111b800828fd2008381d20054
:101e8000090278000c00be0079010700090757001d
:101e90004800900009004000400498000a85750041
:101ea00004003200080078008f0007000000e00006
:101eb00011003a000e00e0000f0032006148b80047
:101ec000808fd2008180d2000000780000f0a10055
:101ed0008c01d0000001d000028641004220a80001
:101ee00081864e004200a9004220ae004200a800b8
:101ef0000c86d300bdff3700008020001800600072
:101f000002003200080078007700070000c02000bf
:101f10001800600002003200c801900063049800bd
:101f20007fb097000e0750000fb99700110009000d
:101f30000287d80080017800010037008001eb00a3
:101f4000030078004f0778004f06be004f05be0023
:101f50004f04be006f00b1000000060040052100e4
:101f60009c003700881f780008a020001804e000bb
:101f700003003a00f9ff070020c0b300004c7800ce
:101f80004f04780000000600889fbe00000478001f
:101f90000800780054000700800478000004200046
:101fa0001800600002003200280090009500070031
:101fb0000000eb0020049800384090000004e0008e
:101fc000050035000000fb00bcfa07000000e0003f
:101fd000010032008084eb00181090000000e00047
:101fe00008003200c2fa07000000e00001003200e1
:101ff0008084eb0018109000820007000000eb00c6
:10200000101498000008200018006000150032002d
:102010000001eb006000b800639920000202d000cc
:1020200063027a00880f520005003a000000400069
:1020300081804800008041000008eb000600370066
:1020400061004000e08048000201e800e80f500015
:10205000e08f5800f0ff3a000800780069000700a0
:102060000e003700000c780000c0eb0030449800f0
:1020700060022000080040002004980040049800fe
:1020800050049800400c980060049800500c980090
:102090007004980076004400000c98000900780055
:1020a0004f04be0000000600881f78000004eb000b
:1020b0006140b800e2ff2f00f3ff2f00240107006a
:1020c000429a2000620078000000e0000100320027
:1020d000adff07000804e800e80f5400f4ff3a00e1
:1020e0004f04780000000600889fbe0000047800be
:1020f0000800e0000f003a008004eb0009047800bb
:102100008800d00060992000610078000000e000a5
:1021100004003200f4ff07000000e00001003d0071
:102120008084eb000804e800e80f5400f4ff3a0054
:102130002500370000002200180060008004eb003a
:1021400021003200a80490000f003700090151005f
:10215000384090000000fb008900780002fa070078
:102160000000e00007003c002800900040049800b8
:1021700060049800500c98001890a0008084eb0038
:10218000110037008084440048019000828f540081
:10219000eeff390028009000400498009800780075
:1021a00002c020000281600001003a003800900067
:1021b00001e8a3000200320060049800010037002b
:1021c000500c98008004eb00090078004f04be001a
:1021d00000000600010020000100e00008003200bd
:1021e000010080000100e000050032008100e900ec
:1021f000010088008100d0000200800000b178005a
:10220000000006000000e0002f003200c00178004e
:10221000e38f51002c0036000308a3002a003a0087
:10222000e14f80000100e00002003200810f500009
:102230000400310011009800e04f880016003700bc
:1022400082007800110190000200e00002003200dc
:10225000800f5100faff390011027800848240009b
:10226000850f500018003900808f520003003a009b
:102270008308420001007800070037000200e000f8
:102280000300320083014000830f51000e0039002b
:102290001200980090009800900090000100e0006b
:1022a0000900320010014000828f500006003a0001
:1022b000a29f20000009eb001001780011084100e6
:1022c000910090001100980000000600889fbe0059
:1022d00000047800d14f80000100e00002003200cd
:1022e000010078000d003700e14f8000c09f200002
:1022f00004003700910f5400250036000180e800eb
:10230000910090000100e000faff3a001000370051
:10231000920f54001e0036000280e8001001780081
:102320000200e000faff3a0011017800e14f80005e
:10233000c09f200004003700910f540014003600a5
:102340000180e80091009000828f5000faff3a006f
:1023500019508000888f54000100310088047800f3
:1023600009007800360007000000e00004003a0091
:10237000888f5400050032008904d100f5ff370032
:10238000091878009fff0700d2ff37000000eb001c
:102390004f04be0000000600881f78006304400060
:1023a0000800a1008000eb00800f540021003600df
:1023b000e30f540001003e004800200008007800b0
:1023c000c2ff07008000eb000000e00019003200af
:1023d000900078009101780064815100880f5100cd
:1023e0000300310011019000020878000700370057
:1023f00008814000020878009101900013019800c4
:102400001001780011091400880878001001780084
:102410000000eb000200e000040032009201900096
:102420000300e000010032000280e800d04f880085
:102430008180e800010078004f0478000000060069
:10244000800078000000eb000100e000050034008f
:1024500001007800aff90700e10f400001003a00e9
:102460000000eb000000060000c0da0000000600db
:102470003400f8000203be00820270008502720080
:1024800002f0a60000f0a6008100e800a10188008b
:102490001500b20008003200105978000402e9006b
:1024a0000d00320061004000fbff39003420ec00d9
:1024b00000002800f8ff3700101978000482e900b6
:1024c0000500320062004000fbff39003420ec00c0
:1024d00000002800f8ff37003400f9000601be00b4
:1024e000000006000300e00007003200a5018000a4
:1024f000a101880010427800a50188000402fb00b9
:10250000820f5200110032008301e900a501800012
:10251000a101880010427800a50188000404e000b1
:1025200008003200000278001000b00000026a00cb
:102530004260af0000f0a0000482d2000180b00031
:10254000e8ff370000002000010020000000060026
:10255000020ab900001bb9000200b8008100420065
:082560008100430000000600a9
:020000040000fa
:10256800556e0000686100006e6400006c65000034
:1025780064200000696e000074650000727200003b
:1025880075700000742c000020000000756e0000bb
:102598006b6e00006f7700006e000000504900006d
:1025a80043320000344800004a310000323800004d
:1025b8004750000035300000320000004131000073
:1025c80000410000320000004133000000440000d8
:1025d800657600006963000065200000494400003a
:1025e800203d0000200000002028000000290000f5
:1025f8002c200000726500007669000073690000f5
:102608006f6e000020000000290a0000000a000088
:102618000a2a00002a2a00002a2a00002a2a000082
:102628002a2a00002a2a00002a2a00002a2a000052
:102638002a2a00002a2a00002a2a00002a2a000042
:102648002a2a00002a2a00002a2a00002a2a000032
:102658002a2a00002a2a00002a2a00002a2a000022
:102668002a2a00002a2a00002a2a00002a2a000012
:102678002a2a00002a2a00002a2a00002a0a000022
:102688002a20000057410000524e0000494e000029
:10269800472000002d2000007468000069730000c6
:1026a80020700000726f000067720000616d00000a
:1026b8002077000061730000206300006f6d000048
:1026c800706900006c65000064200000666f0000ff
:1026d8007220000074680000652000007772000016
:1026e8006f6e000067200000202a00000a2a000000
:1026f8002063000068690000702e0000205400006c
:102708006869000073200000707200006f670000a5
:10271800726100006d2000006d61000079200000ea
:10272800707200006f64000075630000652000008f
:10273800756e000065780000706500006374000025
:10274800656400002062000065680000766900008a
:102758006f720000212000002a0a00002a200000d1
:10276800456400006974000020740000686500007a
:1027780020680000656100006465000072200000a8
:10278800666900006c65000073200000746f00002b
:1027980020700000726f000070650000726c00000d
:1027a8007920000064650000666900006e6500001d
:1027b800207400006869000073200000636800004e
:1027c80069700000202a00000a2a00002061000029
:1027d8006e640000207400006f200000696e000025
:1027e8007375000072650000206300006f720000be
:1027f8007265000063740000206f000070650000bf
:1028080072610000746900006f6e00002e200000e5
:1028180020200000202000002020000020200000b0
:1028280020200000202000002020000020200000a0
:10283800202000002a0a00002a2000002020000092
:102848002020000020200000202000002020000080
:102858002020000020200000202000002020000070
:102868002020000020200000202000002020000060
:102878002020000020200000202000002020000050
:102888002020000020200000202000002020000040
:102898002020000020200000202000002020000030
:1028a800202a00000a2a0000204e00004f54000091
:1028b800453a0000204900006620000074680000c6
:1028c8006973000020770000617300002063000036
:1028d8006f6d0000706900006c65000064200000e6
:1028e800666f000072200000746800006520000018
:1028f800636f0000727200006563000074200000be
:1029080063680000697000002c200000202000008f
:102918002a0a00002a200000616e000064200000de
:102928006f6e00006c790000206f00006363000088
:1029380075720000732000006174000020700000b0
:102948006f770000657200002d6f00006e20000098
:10295800286e00006f74000020640000757200008b
:10296800696e000067200000612000004d430000f0
:102978004c5200002020000020200000202a0000e7
:102988000a2a0000207200006573000065740000c8
:10299800292c00002076000065720000696600009e
:1029a8007920000074680000617400002041000074
:1029b8005644000044200000616e000064200000be
:1029c800415600005353000020610000726500006a
:1029d800206300006f6e00006e65000063740000e5
:1029e800656400002e200000202000002a0a000054
:1029f8002a2000004f6e0000207400006865000067
:102a080020500000494300003234000048330000e1
:102a18003247000050320000303200002c20000005
:102a28006e6f000074200000636f00006e6e00007f
:102a380065630000746900006e67000020410000b3
:102a48005644000044200000202000002020000000
:102a58002020000020200000202a00000a2a000070
:102a680020700000726f000064750000636500004c
:102a7800732000007468000069730000206d000076
:102a8800657300007361000067650000206f000037
:102a98006e6c000079200000617400002070000056
:102aa8006f770000657200002d750000702e000021
:102ab800202000002020000020200000202000000e
:102ac80020200000202000002a0a00002a2a0000f6
:102ad8002a2a00002a2a00002a2a00002a2a00009e
:102ae8002a2a00002a2a00002a2a00002a2a00008e
:102af8002a2a00002a2a00002a2a00002a2a00007e
:102b08002a2a00002a2a00002a2a00002a2a00006d
:102b18002a2a00002a2a00002a2a00002a2a00005d
:102b28002a2a00002a2a00002a2a00002a2a00004d
:102b38002a2a00002a2a00000a0000004661000034
:102b48007374000020520000432000004f730000ff
:102b5800630a000000460000617300007420000052
:102b680052430000204f00007363000020770000ec
:102b78006974000068200000504c00004c0a0000f6
:102b880000500000726900006d6100007279000059
:102b9800204f0000736300002028000058540000f4
:102ba8002c200000485300002c2000004543000062
:102bb800290a000000500000726900006d610000e1
:102bc80072790000204f0000736300002028000085
:102bd800585400002c200000485300002c2000000e
:102be8004543000029200000776900007468000050
:102bf800205000004c4c00000a0000005365000003
:102c0800636f00006e6400006172000079200000ac
:102c18004f730000630a0000004c00006f7700004b
:102c2800205000006f7700006572000020520000fd
:102c3800432000004f730000630a000000460000b4
:102c4800617300007420000052430000204f000010
:102c5800736300002f310000360a000000460000b0
:102c6800617300007420000052430000204f0000f0
:102c7800736300002f4e00000a000000556e00002c
:102c88006b6e00006f7700006e2000006f7300000d
:102c9800636900006c6c0000617400006f720000d2
:102ca8002074000079700000652e0000000a000002
:102cb8004465000076690000636500002068000034
:102cc8006173000020620000656500006e2000004e
:102cd800696e0000207300006c65000065700000dc
:102ce800206d00006f640000650a0000000a000003
:102cf80044650000766900006365000020680000f4
:102d08006173000020620000656500006e2000000d
:102d1800696e000020690000646c000065200000f6
:102d28006d6f0000646500000a0000000a52000090
:102d38006573000065740000206300006175000081
:102d4800736500003a200000005000006f77000013
:102d5800657200002d6f00006e2e00000a00000052
:102d6800536f000066740000776100007265000010
:102d78002052000065730000657400002e0a0000f0
:102d8800005700006174000063680000646f000071
:102d980067200000546900006d6500006f75000031
:102da800743a0000200000000a0000004d430000b3
:102db8004c5200002061000073730000657200002f
:102dc800746900006f6e00002e0a000000420000c7
:102dd800726f0000776e00002d6f000075740000a0
:102de8002e0a0000005400007261000070200000ec
:102df800436f00006e6600006c6900006374000099
:102e08002e0a0000004900006c6c00006567000095
:102e1800616c0000204300006f6e000064690000d0
:102e2800746900006f6e00002e0a00000043000065
:102e38006f6e00006669000067750000726100002f
:102e4800746900006f6e0000204d00006973000077
:102e58006d61000074630000682e00000a00000025
:102e6800556e00006b6e00006f7700006e2000004a
:102e78007265000073650000742e00000a000000ef
:102e880045720000726f000072200000747200002a
:102e98006170000070650000643a000020000000c6
:102ea80050720000696f00007269000074790000b8
:102eb8003a200000002c0000205600006563000046
:102ec800746f0000722000006e7500006d620000d3
:102ed800657200003a200000000a00000a000000a5
:102ee80045720000726f000072200000696e0000d9
:102ef800202e00002e2f00007069000063320000b1
:102f0800345f0000636f0000646500005f650000c7
:102f1800786100006d7000006c650000732f000080
:102f28006c690000622f000073720000632f0000bc
:102f38007069000063320000345f0000757400009f
:102f4800696c00002e630000206c0000696e0000b0
:102f58006520000034370000383a000020410000a6
:102f680053530000455200005428000075310000fa
:102f7800365f00006272000067680000203c0000b5
:102f88003d20000031290000206600006169000032
:102f98006c650000642e00000a0000004572000005
:102fa800726f000072200000696e0000202e000081
:102fb8002e2f00007069000063320000345f0000ab
:102fc800636f0000646500005f65000078610000c1
:102fd8006d7000006c650000732f00006c690000c4
:102fe800622f000073720000632f000070690000f8
:102ff80063320000345f000075740000696c0000e3
:103008002e630000206c0000696e0000652000003f
:1030180034380000343a00002041000053530000c7
:103028004552000054280000665f000062720000ec
:10303800672000003c2000003635000035330000d2
:10304800352e000035290000206600006169000067
:103058006c650000642e00000a0000004572000044
:10306800726f000072200000696e0000202e0000c0
:103078002e2f00007069000063320000345f0000ea
:10308800636f0000646500005f6500007861000000
:103098006d7000006c650000732f00006c69000003
:1030a800622f000073720000632f0000646100004b
:1030b800746100005866000065720000496d0000e8
:1030c800706c00002e630000206c0000696e000028
:1030d80065200000393000003a200000415300000c
:1030e800534500005254000028460000414c00009f
:1030f800534500002920000066610000696c00004b
:10310800656400002e0a000000450000727200008d
:103118006f720000206900006e2000002e2e000053
:103128002f70000069630000323400005f63000004
:103138006f640000655f000065780000616d000045
:10314800706c0000657300002f6c0000696200005d
:103158002f730000726300002f6400006174000088
:103168006158000066650000724900006d7000003b
:103178006c2e0000632000006c6900006e65000082
:1031880020340000323800003a200000415300008b
:10319800534500005254000028460000414c0000ee
:1031a800534500002920000066610000696c00009a
:1031b800656400002e0a00000045000072720000dd
:1031c8006f720000206900006e2000002e2e0000a3
:1031d8002f70000069630000323400005f63000054
:1031e8006f640000655f000065780000616d000095
:1031f800706c0000657300002f6c000069620000ad
:103208002f730000726300002f64000061740000d7
:103218006158000066650000724900006d7000008a
:103228006c2e0000632000006c6900006e650000d1
:1032380020340000343900003a20000041530000d7
:10324800534500005254000028460000414c00003d
:10325800534500002920000066610000696c0000e9
:10326800656400002e0a000000450000727200002c
:103278006f720000206900006e2000002e2e0000f2
:103288002f70000069630000323400005f630000a3
:103298006f640000655f000065780000616d0000e4
:1032a800706c0000657300002f6c000069620000fc
:1032b8002f730000726300002f6400006174000027
:1032c8006158000066650000724900006d700000da
:1032d8006c2e0000632000006c6900006e65000021
:1032e80020340000353900003a2000004153000026
:1032f8005345000052540000286300005f6f00002f
:10330800757400004368000061720000203d0000f1
:103318003d200000434d0000445f0000544f000072
:103328004b4500004e29000020660000616900003e
:103338006c650000642e00000a0000004572000061
:10334800726f000072200000696e0000202e0000dd
:103358002e2f00007069000063320000345f000007
:10336800636f0000646500005f650000786100001d
:103378006d7000006c650000732f00006c69000020
:10338800622f000073720000632f00006461000068
:10339800746100005866000065720000496d000005
:1033a800706c00002e630000206c0000696e000045
:1033b8006520000034380000383a00002041000041
:1033c80053530000455200005428000046410000b5
:1033d8004c53000045290000206600006169000088
:1033e8006c650000642e00000a00000045720000b1
:1033f800726f000072200000696e0000202e00002d
:103408002e2f00007069000063320000345f000056
:10341800636f0000646500005f650000786100006c
:103428006d7000006c650000732f00006c6900006f
:10343800622f000073720000632f000064610000b7
:10344800746100005866000065720000496d000054
:10345800706c00002e630000206c0000696e000094
:103468006520000035310000353a00002041000099
:103478005353000045520000542800004641000004
:103488004c530000452900002066000061690000d7
:103498006c650000642e00000a0000004572000000
:1034a800726f000072200000696e0000202e00007c
:1034b8002e2f00007069000063320000345f0000a6
:1034c800636f0000646500005f65000078610000bc
:1034d8006d7000006c650000732f00006c690000bf
:1034e800622f000073720000632f00006461000007
:1034f800746100005866000065720000496d0000a4
:10350800706c00002e630000206c0000696e0000e3
:103518006520000035380000393a000020410000dd
:103528005353000045520000542800004641000053
:103538004c53000045290000206600006169000026
:103548006c650000642e00000a0000006e6f000029
:1035580020650000727200006f72000000720000a7
:10356800657000006561000074650000642000005b
:10357800636f00006d6d0000616e00006400000064
:10358800746900006d6500006f750000740000002c
:10359800696e0000746500007272000075700000aa
:1035a8007465000064200000636f00006d6d00000a
:1035b800616e000064000000756e0000737000000a
:1035c800656300006966000069650000642000000a
:1035d800696e00006465000078000000696e0000f4
:1035e8006465000078200000746f00006f20000000
:1035f80068690000676800000076000061720000da
:1036080069610000626c00006520000073690000b9
:103618007a650000206d0000697300006d6100008c
:1036280074630000680000007265000061640000b7
:10363800206f00006e6c00007920000076610000a9
:1036480072690000616200006c650000006900009a
:103658006c6c000065670000616c0000207600005b
:103668006172000069610000626c00006520000062
:1036780073700000656300006966000069630000fc
:1036880061740000696f00006e0000004572000060
:10369800726f000072200000696e0000202e00008a
:1036a8002e2f00007069000063320000345f0000b4
:1036b800636f0000646500005f65000078610000ca
:1036c8006d7000006c650000732f00006c690000cd
:1036d800622f000073720000632f00006461000015
:1036e800746100005866000065720000496d0000b2
:1036f800706c00002e630000206c0000696e0000f2
:103708006520000036310000333a000020410000f7
:10371800535300004552000054280000287200004e
:103728006563000065690000766500004572000069
:10373800726f0000722000003e2000003029000057
:103748002026000026200000287200006563000083
:10375800656900007665000045720000726f000020
:10376800722000003c2000004e5500004d5f000014
:1037780045520000524f0000525f0000434f0000c6
:10378800444500005329000029200000666100001c
:10379800696c0000656400002e0a0000000000004b
:1037a80045720000726f000072200000696e000010
:1037b800202e00002e2f00007069000063320000e8
:1037c800345f0000636f0000646500005f650000ff
:1037d800786100006d7000006c650000732f0000b8
:1037e8006c690000622f000073720000632f0000f4
:1037f8006461000074610000586600006572000092
:103808002e630000206c0000696e00006520000037
:10381800343200003a2000004153000053450000b4
:1038280052540000287500005f76000061720000a5
:10383800496e000064650000782000003c2000000c
:10384800363200002920000066610000696c000023
:10385800656400002e0a0000004500007272000036
:103868006f720000206900006e2000002e2e0000fc
:103878002f70000069630000323400005f630000ad
:103888006f640000655f000065780000616d0000ee
:10389800706c0000657300002f6c00006962000006
:1038a8002f730000726300002f6400006174000031
:1038b8006158000066650000722e00006320000059
:1038c8006c6900006e65000020340000343a000086
:1038d80020410000535300004552000054280000c6
:1038e800707600005f6400006174000061200000d1
:1038f800213d000020300000292000006661000002
:10390800696c0000656400002e0a00000045000094
:10391800727200006f720000206900006e200000c3
:103928002e2e00002f700000696300003234000062
:103938005f6300006f640000655f00006578000049
:10394800616d0000706c0000657300002f6c000052
:10395800696200002f730000726300002f6400008a
:10396800617400006158000066650000722e000056
:10397800632000006c6900006e65000020340000c0
:10398800363a000020410000535300004552000021
:1039980054280000287500005f730000697a000051
:1039a800652000003e20000030290000202600008d
:1039b80026200000287500005f730000697a000067
:1039c800652000003c3d000020280000283200004f
:1039d80035350000292000002b2000003129000087
:1039e8002929000020660000616900006c6500005c
:1039f800642e00000a00000045720000726f00008b
:103a080072200000696e0000202e00002e2f00009a
:103a18007069000063320000345f0000636f0000cb
:103a2800646500005f650000786100006d7000004b
:103a38006c650000732f00006c690000622f0000a5
:103a480073720000632f000064610000746100005d
:103a580058660000657200002e630000206c0000ac
:103a6800696e000065200000393300003a2000002c
:103a780041530000534500005254000028750000cf
:103a88005f76000061720000496e00006465000006
:103a9800782000003c200000363200002920000079
:103aa80066610000696c0000656400002e0a000071
:103ab80000450000727200006f720000206900006b
:103ac8006e2000002e2e00002f7000006963000099
:103ad800323400005f6300006f640000655f00001f
:103ae80065780000616d0000706c0000657300006f
:103af8002f6c0000696200002f73000072630000e1
:103b08002f640000617400006158000066650000c1
:103b1800722e0000632000006c6900006e650000d2
:103b280020310000303000003a20000041530000ee
:103b380053450000525400002870000058660000e9
:103b48006572000056610000722d00003e70000092
:103b5800753800005f640000617400006120000097
:103b6800213d00002030000029200000666100008f
:103b7800696c0000656400002e0a00000044000023
:103b88006174000061200000726500006365000038
:103b9800697600006520000065720000726f000001
:103ba800723a000020000000554100005254000005
:103bb8003120000070610000726900007479000013
:103bc80020650000727200006f7200000a00000099
:103bd8005541000052540000312000006672000078
:103be800616d0000696e00006720000065720000ca
:103bf800726f0000720a0000005500004152000078
:103c080054310000206f00007665000072720000d9
:103c1800756e000020650000727200006f7200006f
:103c28000a00000045720000726f00007220000058
:103c3800696e0000202e00002e2f00007069000021
:103c480063320000345f0000636f000064650000a9
:103c58005f650000786100006d7000006c65000011
:103c6800732f00006c690000622f0000737200005f
:103c7800632f00007069000063320000345f0000a9
:103c880075610000727400002e630000206c000053
:103c9800696e00006520000033360000313a0000ec
:103ca80020410000535300004552000054280000f2
:103cb80075330000325f0000626100007564000027
:103cc8005261000074650000203e00003d200000a5
:103cd80031300000303000004c2900002066000020
:103ce800616900006c650000642e00000a00000095
:103cf800554100005254000032200000706100005d
:103d0800726900007479000020650000727200007a
:103d18006f7200000a000000554100005254000074
:103d28003220000066720000616d0000696e0000bc
:103d38006720000065720000726f0000720a0000c0
:103d4800005500004152000054320000206f00006e
:103d58007665000072720000756e00002065000034
:103d6800727200006f7200000a00000045720000c5
:103d7800726f000072200000696e0000202e0000a3
:103d88002e2f00007069000063320000345f0000cd
:103d9800636f0000646500005f65000078610000e3
:103da8006d7000006c650000732f00006c690000e6
:103db800622f000073720000632f0000706900001a
:103dc80063320000345f0000756100007274000007
:103dd8002e630000206c0000696e00006520000062
:103de80037350000313a00002041000053530000ed
:103df800455200005428000075330000325f00006f
:103e08006261000075640000526100007465000082
:103e1800203e00003d20000031300000303000001e
:103e28004c29000020660000616900006c650000f4
:103e3800642e00000a00000045720000726f000046
:103e480072200000696e0000202e00002e2f000056
:103e58007069000063320000345f0000636f000087
:103e6800646500005f650000786100006d70000007
:103e78006c650000732f00006c690000622f000061
:103e880073720000632f0000706900006332000045
:103e9800345f00007365000072690000616c000007
:103ea8002e630000206c0000696e00006520000091
:103eb800383100003a200000496e000076610000a9
:103ec8006c69000064200000554100005254000055
:103ed800003000007800000045720000726f00009a
:103ee80072200000696e0000202e00002e2f0000b6
:103ef8007069000063320000345f0000636f0000e7
:103f0800646500005f650000786100006d70000066
:103f18006c650000732f00006c690000622f0000c0
:103f280073720000632f00007069000063320000a4
:103f3800345f00007365000072690000616c000066
:103f48002e630000206c0000696e000065200000f0
:103f580032390000363a0000204900006e76000031
:103f6800616c0000696400002055000041520000a7
:103f78005400000045720000726f000072200000bb
:103f8800696e0000202e00002e2f000070690000ce
:103f980063320000345f0000636f00006465000056
:103fa8005f650000786100006d7000006c650000be
:103fb800732f00006c690000622f0000737200000c
:103fc800632f00007069000063320000345f000056
:103fd8007365000072690000616c00002e630000c8
:103fe800206c0000696e000065200000333300007b
:103ff800353a0000204900006e760000616c000030
:10400800696400002055000041520000540000007f
:1040180050c3000030750000204e0000102700003b
:1040280088130000b80b0000d0070000e803000068
:10403800f40100002c010000c8000000640000002a
:10404800320000001e000000140000000a000000fa
:10405800050000000300000002000000010000004d
:104068000503000002010000321e0000140a0000cf
:104078000503000002010000050300000201000022
:10408800050300000201000045720000726f000085
:1040980072200000696e0000202e00002e2f000004
:1040a8007069000063320000345f0000636f000035
:1040b800646500005f650000786100006d700000b5
:1040c8006c650000732f00006c690000622f00000f
:1040d80073720000632f00007069000063320000f3
:1040e800345f0000746900006d650000722e0000e6
:1040f800632000006c6900006e6500002035000038
:10410800383a000020410000535300004552000097
:1041180054280000665f000074690000636b0000ab
:10412800732000003c2000003635000035330000c5
:10413800352e000035290000206600006169000066
:104148006c650000642e00000a0000004572000043
:10415800726f000072200000696e0000202e0000bf
:104168002e2f00007069000063320000345f0000e9
:10417800636f0000646500005f65000078610000ff
:104188006d7000006c650000732f00006c69000002
:10419800622f000073720000632f00007069000036
:1041a80063320000345f0000746900006d65000030
:1041b800722e0000632000006c6900006e6500002c
:1041c80020370000363a0000204100005353000019
:1041d8004552000054280000665f00007469000022
:1041e800636b0000732000003c200000363500009f
:1041f80035330000352e0000352900002066000008
:10420800616900006c650000642e00000a0000006f
:1042180045720000726f000072200000696e000095
:10422800202e00002e2f000070690000633200006d
:10423800345f0000636f0000646500005f65000084
:10424800786100006d7000006c650000732f00003d
:104258006c690000622f000073720000632f000079
:104268007069000063320000345f00007469000068
:104278006d650000722e0000632000006c6900006c
:104288006e65000020310000363000003a20000042
:1042980041530000534500005254000028750000a7
:1042a800385f0000544300004b50000053200000ca
:1042b8003c3d00002033000029200000666100001a
:1042c800696c0000656400002e0a00000000000010
:1042d8000a0a0000596f0000757200002063000090
:1042e8006c6f0000636b000020630000686f0000c3
:1042f800696300006520000066610000696c0000c9
:1043080065640000207400006f200000696e0000e2
:1043180069740000696100006c6900007a6500003a
:104328002e20000053650000652000002e2e00009e
:104338002f70000069630000323400005f630000e2
:104348006f640000655f000065780000616d000023
:10435800706c0000657300002f6c0000696200003b
:104368002f730000726300002f7000006963000063
:10437800323400005f6300006c6f0000636b000064
:1043880066720000657100002e630000206c00005a
:10439800696e000065200000323000003320000004
:1043a800666f0000722000006d6f000072650000eb
:1043b8002064000065740000616900006c730000ef
:1043c8002e0000002e2e00002e2000002d2d0000b3
:1043d8002d2000002e2e00002e0000004572000047
:1043e800726f000072200000696e0000202e00002d
:1043f8002e2f00007069000063320000345f000057
:10440800636f0000646500005f650000786100006c
:104418006d7000006c650000732f00006c6900006f
:10442800622f000073720000632f000070690000a3
:1044380063320000345f0000636c00006f630000ab
:104448006b66000072650000712e0000632000009a
:104458006c6900006e6500002032000032300000f8
:104468003a20000041530000534500005254000018
:1044780028750000385f0000736f00007572000037
:1044880063650000203c000020380000292000005f
:1044980066610000696c0000656400002e0a000077
:1044a8000000000045720000726f000072200000da
:1044b800696e0000202e00002e2f00007069000099
:1044c80063320000345f0000636f00006465000021
:1044d8005f650000786100006d7000006c65000089
:1044e800732f00006c690000622f000073720000d7
:1044f800632f00007069000063320000345f000021
:10450800666c000061730000682e000063200000e4
:104518006c6900006e650000203200003032000037
:104528003a20000041530000534500005254000057
:1045380028750000313600005f6c0000656e0000d1
:10454800203c00003d200000464c00004153000084
:10455800485f0000504100004745000042590000f4
:1045680054450000532900002066000061690000de
:104578006c650000642e00000a000000457200000f
:10458800726f000072200000696e0000202e00008b
:104598002e2f00007069000063320000345f0000b5
:1045a800636f0000646500005f65000078610000cb
:1045b8006d7000006c650000732f00006c690000ce
:1045c800622f000073720000632f00007069000002
:1045d80063320000345f0000666c00006173000005
:1045e800682e0000632000006c6900006e65000002
:1045f80020320000353100003a200000415300000d
:104608005345000052540000287500003136000060
:104618005f6c0000656e0000203c00003d2000003b
:10462800464c000041530000485f00005041000024
:104638004745000042590000544500005329000036
:1046480020660000616900006c650000642e0000af
:104658000a0000001b5b0000313b000031480000ed
:104668001b5b0000324a0000004900006e69000030
:1046780074690000616c0000697a0000696e0000ce
:10468800672e00002e2e00000a0d000000450000d5
:104698006e74000065720000203200002063000084
:1046a80068610000726100006374000065720000b8
:1046b8002070000061730000737700006f720000c3
:1046c800642e00002e2e00000a0d0000002d0000b0
:1046d8002d5000004153000053450000442e0000b7
:1046e8002e2e00000a0d0000002d00002d460000af
:1046f800414900004c450000442e00002e2e0000c9
:1047080054720000792000006167000061690000b0
:104718006e0a00000d00000049320000433100001d
:10472800205300007461000072740000004900000a
:104738003243000031200000525300007461000031
:10474800727400000049000032430000312000006c
:10475800537400006f7000000049000032430000ed
:10476800312000005075000074000000493200003c
:104778004350000055540000312c0000204e00002a
:10478800414b000020720000657400007572000043
:104798006e650000642e00000049000032430000ee
:1047a80031200000476500007400000053500000ed
:1047b800493100002052000065630000656900006f
:1047c80076650000204f00007665000072660000e4
:1047d8006c6f0000770a0000005300005049000089
:1047e8003220000052650000636500006976000011
:1047f800652000004f76000065720000666c0000be
:104808006f7700000a0000007374000064690000fc
:104818006e00000073740000646f0000757400007f
:1048280000730000746400006572000072000000ec
:10483800636f00006e76000065720000744100002e
:0c4848004443000031280000290000005b
:020000040000fa
:104854000600fa00000f78001107980042479800fc
:104864001e007800900078000100a1000108780083
:104874001e007800900078000110a1000108780063
:104884009e009000f07f2000008160001e007800f0
:10489400f17f200081006100c208dd0090017800f2
:1048a40032002e00028161008280700001087800cd
:1048b4001e0078001001900001002f0081006100ab
:1048c400110098001e00780020019000f13f2000a4
:1048d40081006100210098001e007800a000900073
:1048e4000190a100210098001e007800a000900013
:1048f4000180a100210098001e007800a000900013
:104904000140a100210098004e409000ef4060005b
:104914001e0078008180fb00ef806000a001900001
:1049240002ff2f0002816100828070002100980044
:104934000080fa00000006000800fa00000f78006a
:104944001207980023079800614798001e0078001a
:10495400900078000100a000010878001e00780093
:10496400900078000110a100010878001e0090005a
:10497400ae0090004208de0080007800f07f200046
:1049840080806000f07f200000806000f17f2000c4
:10499400010060009e007800f27f200002006000a9
:1049a4004200dd009101780032002e000281610096
:1049b40002007000800878001e009000ae00900095
:1049c4004a09dd004600de0000007100c608de0072
:1049d40080007800f0ff200080806000f0ff20005d
:1049e40000806000f1ff2000010060009e0078005c
:1049f400f2ff2000020060009101900002002f00ed
:104a04000281610002007000900098001e00900076
:104a140000407800f043b200f043b200f043b2002b
:104a24009e0078000080fb004a00dd00a101900098
:104a3400f23f20000281610002007000a000980093
:104a44001e007800a00090000190a10021009800b1
:104a54001e007800a00090000180a10021009800b1
:104a64001e007800a00090000140a10021009800e1
:104a74006e409000ef4060001e0078008180fb00d3
:104a8400ef806000a001900002ff2f00028161000e
:104a940082807000210098000080fa000000060067
:104aa4000a00fa00400798004e00900010007800b9
:104ab4004200de00f17f2000010060008000eb0076
:104ac400008fbe001e00be00c200dd0000002000fa
:104ad40020079800310798004e0090009000900045
:104ae400f0ff2000008060008000eb00008fbe001b
:104af4001e00be004609dd00ca01de00830171000c
:104b04004601dd002e009000be00900000017100ff
:104b1400818171004e009000200090004a00de0068
:104b2400004078000080fb008000eb000000710072
:104b34008180710020079800310798002e009000b2
:104b4400be0090000080fa00000006000000fa0099
:104b5400c05f240090208800000c20008020880082
:104b64000080fa00000006000200fa00004f7800fe
:104b74009e4078007fcf60001e407800ef4f5000c9
:104b84000b0036009e40780070cf50001e80fb0062
:104b9400110020000008dd000080ea008000780099
:104ba4001021800000806000102188000800370078
:104bb4001e80fb00110020000008dd000080ea00d8
:104bc40080007800002180000080600000218800bf
:104bd4000080fa00000006000200fa00004f78008e
:104be4009e4078007fcf60001e407800ef4f500059
:104bf4000a0036009e40780070cf50001e80fb00f3
:104c0400110020000008dd008040780010218000a1
:104c14000040780000c06000070037001e80fb00e1
:104c2400110020000008dd00804078000021800091
:104c34000040780000c060000080fa000000060018
:104c44000000fa002024ef002224ef002824ef00c3
:104c54002a24ef000080fa00000006000400fa0095
:104c6400004f780011479800224798009e40780032
:104c740067cf60001e80fb00e30f50004900320044
:104c8400e30f500007003c00e10f50001f0032000a
:104c9400e10f500030003c000000e000080032004a
:104ca4008c003700e50f500064003200e50f50001f
:104cb4004f003500e60f50007300320085003700c6
:104cc4001e409000614060000080fb0061006000b5
:104cd4004700dd00812180000170a1000100700007
:104ce400802188002e409000634060000080fb001b
:104cf4006300600082218000c1ff2f0081006100f9
:104d04000100700080218800850037001e4090005b
:104d1400614060000080fb004f00dd0081218000c5
:104d240001f0a10001007000802188002e40900055
:104d3400634060000080fb00630060004800dd0009
:104d440082218000f1cf2f008100610001007000fa
:104d540080218800720037001e409000614060008e
:104d64000080fb00610060004700dd0091218000ad
:104d74000170a10001007000902188002e40900075
:104d8400634060000080fb006300600092218000ab
:104d9400c1ff2f0081006100010070009021880094
:104da4005f0037001e409000614060000080fb00ff
:104db4004f00dd009121800001f0a100010070008e
:104dc400902188002e409000634060000080fb002a
:104dd400630060004800dd0092218000f1cf2f00c5
:104de4008100610001007000902188004c003700b0
:104df4001e409000614060000080fb006100600084
:104e04004700dd00a12180000170a10001007000b5
:104e1400a02188002e409000634060000080fb00c9
:104e240063006000a2218000c1ff2f0081006100a7
:104e340001007000a0218800390037001e40900056
:104e4400614060000080fb004f00dd00a121800074
:104e540001f0a10001007000a02188002e40900004
:104e6400634060000080fb00630060004800dd00d8
:104e7400a2218000f1cf2f008100610001007000a9
:104e8400a0218800260037001e4090006140600089
:104e94000080fb00610060004700dd00b12180005c
:104ea4000170a10001007000b02188002e40900024
:104eb400634060000080fb0063006000b22180005a
:104ec400c1ff2f008100610001007000b021880043
:104ed400130037001e409000614060000080fb001a
:104ee4004f00dd00b121800001f0a100010070003d
:104ef400b02188002e409000634060000080fb00d9
:104f0400630060004800dd00b2218000f1cf2f0073
:104f14008100610001007000b021880000000000e1
:104f24000080fa00000006000200fa00004f78003a
:104f34009e40780067cf60001e80fb00e30f5000a6
:104f440016003200e30f500007003c00e10f500050
:104f54000e003200e10f50000e003c000000e000a3
:104f64000800320015003700e50f50000f00320032
:104f7400e50f50000b003500e60f50000d00320025
:104f84000e0037003064a8000e0037003164a8001a
:104f94000c0037003264a8000a0037003364a8000c
:104fa400080037003464a800060037003564a80000
:104fb400040037003664a800020037003764a800f4
:104fc400000000000080fa00000006000200fa0061
:104fd400004f78009e40780067cf60001e80fb0081
:104fe400e30f50001c003200e30f500007003c00a8
:104ff400e10f500010003200e10f500012003c009d
:105004000000e0000800320023003700e50f5000e4
:1050140019003200e50f500013003500e60f500070
:10502400190032001c003700802180004300de009c
:10503400614060001b003700802180004b00de00cf
:105044006140600017003700902180004300de00bb
:105054006140600013003700902180004b00de00a7
:10506400614060000f003700a02180004300de0093
:10507400614060000b003700a02180004b00de007f
:105084006140600007003700b02180004300de006b
:105094006140600003003700b02180004b00de0057
:1050a400614060000080fa00000006001c00fa0065
:1050b40020579800220f9800330f9800015f980042
:1050c400145f9800255f98002e5090006f40600098
:1050d400205798001e5890006f406000105f9800a1
:1050e4002e58900067406000205f98002e5090007a
:1050f4000080fb00000040000000400080007800b9
:1051040000442000008f40001e80e8001007980033
:105114002e5090000080fb004300de000040780029
:105124000080fb00000040008000780080412000e7
:1051340000804000200798002e5090000080fb0063
:105144004200de00004078000080fb0000004000c8
:105154008000780000422000008040003007980062
:105164000004a8000e5890000004e0001b00320068
:105174002e089000be0890004208de0080007800ef
:10518400f07f200000806000400798002e08900007
:10519400be0890004008de00000078006300600054
:1051a40050079800ae089000610798004e009000e8
:1051b400c500dd005e0090000100700080007800f2
:1051c4000130a0001e007800010878001e00900045
:1051d400ee009000010878000b003700ae08900044
:1051e400f07f200000806000400798004e0090008f
:1051f400c500dd001e007800010878001e00900044
:105204008000eb00010878002e509000e34060001d
:10521400200020000008dd00604f98006e489000d8
:105224000080fb00f10020000008dd000080ea009f
:10523400000f98003e009000900078000e08900047
:10524400808060001e5890000081fb006e48900032
:105254000080fb000010dd00810070003e00900023
:10526400010878002e509000674060000040400024
:10527400604f98006e4890000080fb0031002000d1
:105284000008dd000080ea00000f98002e00900066
:10529400900078000e089000808060002e589000e6
:1052a4000081fb006e4890000080fb000010dd00d0
:1052b400810070002e009000010878002e509000ac
:1052c4000080fb00110020000008dd008000780051
:1052d400a020800001007000a02088000004a90024
:1052e4000080fa00000006001200fa00204f980027
:1052f40062079800730798000157980014579800a4
:105304002e4890000080fb00000040000000400098
:105314008000780000432000008f40001e80e800d9
:10532400100798000004a8000e5090000004e0004c
:10533400250032006e009000fe0090004208de005e
:1053440080007800f07f2000008060002007980033
:105354006e009000fe0090004008de00000078001f
:105364006300600030079800ee0090004107980049
:105374001e5090000004e000090032002e0090004e
:10538400c500dd003e009000010070008000780040
:105394000130a0001e0078000108780006003700e4
:1053a4002e009000c500dd003e00900081007000da
:1053b4001e007800010878001e009000ce009000c6
:1053c4000108780015003700ee009000f07f2000ff
:1053d40000806000200798001e5090000004e00048
:1053e400070032002e0090004500dd0080007800a8
:1053f4000130a0001e007800010878000400370086
:105404002e009000c500dd001e0078000108780021
:105414001e0090008000eb00010878000004a90041
:105424000080fa00000006000400fa00004f780033
:10543400110798001e4078000004e00002003a00c2
:105444001e009000450207000080fa0000000600dc
:105454000000fa000028ef000228ef000080fa00a4
:10546400000006000400fa00004f780011079800bd
:1054740000408000e10f500012003200e10f5000a4
:1054840003003900e20f5000260032003c003700d0
:10549400a0cab3009e40780080cf500005003200bf
:1054a4001e0090001e487800100020001040880064
:1054b4003700370010002000004088000228ef0069
:1054c400330037001e00fb00a1fa2f00810f5000ab
:1054d40003003200e40f4000040032000a003700e9
:1054e40020002000004088000d0037001e009000be
:1054f400a1cab300014878001000200010408800c1
:105504000028ef00060037001e0090001e487800b7
:1055140020002000104088000028ef000000000058
:105524001b0037001e00fb00a1fa2f00810f500062
:1055340009003200e40f40000a003a002000200075
:10554400104088000028ef001e009000a1cab3009c
:10555400014878000900370040002000104088000e
:10556400060037001e0090001e487800300020001e
:10557400104088000028ef000000000004003700fd
:10558400218329000040eb00a7ff07000000000072
:10559400104080000080fa00000006000000fa00bd
:1055a400204080000080fa00000006000000fa009d
:1055b40006c8bf000080fa00000006000000fa00e0
